:020000040800F2
:1000000070070020D5010008C1220008292000083F
:10001000BD22000885040008AD270008000000008C
:100020000000000000000000000000008926000819
:100030008904000800000000852600088D260008BD
:10004000EF010008EF010008EF010008EF010008D0
:10005000EF010008EF010008EF010008EF010008C0
:10006000EF010008EF010008EF010008EF010008B0
:10007000EF010008EF010008EF010008EF010008A0
:10008000EF010008EF010008EF010008EF01000890
:10009000EF010008EF010008EF010008EF01000880
:1000A000EF010008EF010008EF010008EF01000870
:1000B000EF010008EF010008EF010008EF01000860
:1000C000EF010008EF010008EF010008EF01000850
:1000D000EF010008A1270008EF010008EF01000868
:1000E000EF010008EF010008EF010008EF01000830
:1000F000EF010008EF010008EF010008EF01000820
:10010000EF010008EF010008EF010008EF0100080F
:10011000EF010008EF010008EF010008EF010008FF
:10012000EF010008EF010008EF010008EF010008EF
:1001300000F002F800F03FF80AA090E8000C8244BA
:100140008344AAF10107DA4501D100F034F8AFF297
:10015000090EBAE80F0013F0010F18BFFB1A43F0A5
:1001600001031847F831000018320000103A24BF8C
:1001700078C878C1FAD8520724BF30C830C144BF0C
:1001800004680C607047000000230024002500264E
:10019000103A28BF78C1FBD8520728BF30C148BFEA
:1001A0000B607047642900F07580002070471FB510
:1001B0001FBD10B510BD00F033F91146FFF7F7FF72
:1001C00002F03CFC00F051F903B4FFF7F2FF03BC6E
:1001D00002F01EFC0948804709480047FEE7FEE799
:1001E000FEE7FEE7FEE7FEE7FEE7FEE7FEE7FEE7E7
:1001F00004480549054A064B70470000912600084F
:1002000031010008700100207007002070030020F9
:10021000700300200FB4044910B503AA029800F03F
:10022000D1F810BC5DF814FB840000202DE9F041EA
:100230000E460446002020622046E168884730B31D
:10024000252805D0D4E901219047206A401CF2E717
:10025000E168204600278847050018D0A5F1410035
:10026000192802D820354FF4006732462946204627
:100270002760FFF797FF40B1012804D0F61D26F054
:1002800007060836D8E7361DD6E72846DAE7206A9B
:10029000BDE8F0812DE9F04106460024106875297B
:1002A000314616A510D0AFF30080002802DA404294
:1002B00013A507E031688A0701D512A502E04907B6
:1002C00004D511A5012401E0AFF3008000210A222A
:1002D00006F1240709E0B0FBF2FCB0FBF2F302FBED
:1002E0001C00303078541846491C0028F3D12346AE
:1002F0002A463046BDE8F04100F00BB8000000008F
:100300002D0000002B000000200000007047704707
:1003100070472DE9F0470D4699469246044600F194
:1003200024080168880604D5E06921F010012160E5
:1003300000E00120A84201DD471B00E00027A16981
:100340007A1902EB0900081AA0612078C00602D4CD
:100350002046AFF30080002608E0D4E901211AF816
:1003600006009047206A401C761C20624E45F4DB54
:100370002078C0060AD52046AFF3008006E0D4E915
:10038000012130209047206A401C2062381EA7F1CE
:100390000107F4DC07E0D4E9012118F805009047D3
:1003A000206A401C2062281EA5F10105F3DC2046CE
:1003B000AFF300802078000602D50220BDE8F08768
:1003C0000120FBE7074B70B50D467B4400F011F8A8
:1003D0000446284600F020F810B14FF0FF3070BD01
:1003E000204670BD4726000001694A1C026108785A
:1003F000704700B58FB0CDE9013100210591054965
:100400007944CDE9031011466846FFF70FFF0FB09E
:1004100000BD0000E5FFFFFF007B00F0800070479B
:10042000754600F02BF8AE4605006946534620F0AD
:100430000700854618B020B5FFF7DAFEBDE820407A
:100440004FF000064FF000074FF000084FF0000B90
:10045000AC46ACE8C009ACE8C009ACE8C009ACE8FF
:10046000C00921F007018D46704710B50446AFF36F
:1004700000802046BDE81040FFF7A6BE0048704748
:1004800010000020FEE7000070470000EFF310802E
:1004900072B600BFFEE70000014690F82100022876
:1004A00016D10868D1E90FC3026822F00E0202607B
:1004B000026822F001020260012000FA03F2CCF887
:1004C000042081F821000020002281F820207047BC
:1004D000042088630120002281F82020704700005A
:1004E00080B590F82110022928D1026840F2040C4E
:1004F0001368C4F2020C23F00E03136013680CF1AE
:100500007C018A4223F0010111601BD940F20841AD
:10051000C4F202018A4249D040F21C41C4F20201F5
:100520008A4247D040F23041C4F202018A4245D1AA
:100530004FF48073CCF800345DE000BF0421816388
:10054000012080BD4321C4F202018A420EDD6B21ED
:10055000C4F202018A421BDC4421C4F202018A4235
:100560003CD05821C4F202018A4233E00821C4F28F
:1005700002018A4236D01C21C4F202018A4237D0DD
:100580003021C4F202018A4224D14FF4807230E05B
:100590006C21C4F202018A4226D08021C4F20201F9
:1005A0008A4217D14FF0807223E000BF0123CCF8BC
:1005B000003420E01023CCF800341CE00CF58861F6
:1005C0004FF480338A4208BF4FF48053CCF8003494
:1005D00011E000BF4FF480320BE000BF4FF48052B7
:1005E00007E000BF012204E04FF4801201E000BFE9
:1005F0001022CCF80020012180F82110426B00214C
:1006000080F820100AB190470021084680BD000004
:10061000B0B5044600F01CF9054640F20000C2F2F5
:1006200000000078611C18BF044400BF00F010F9FE
:10063000401BA042FAD3B0BD2DE9F04F82B0D1F8F3
:1006400000C0BCF1000F00F0F180A0F1804241F643
:100650000045A2F58432C4F2010540F2004E4FEA93
:10066000B2240627A842C4F2010E08BF0527052CB4
:100670004FF000044FF001084FF00F034FF0000A55
:100680004FF0000B38BF4FEAB22700970AE000BFD7
:10069000D1F800C00AF1010A3CFA0AF204F104049C
:1006A00000F0C48008FA0AF91CEA090FF0D04E687D
:1006B0004FF6FF72C1F21002964211DC122E55D88D
:1006C000DFE806F0340A4448545454545454545403
:1006D00054545454544C5000D1F80CB046E000BF70
:1006E0004FF6FF72C1F2210296420FDC0022C1F2E6
:1006F000110296421AD00022C1F21202964215D07F
:100700000022C1F22102964210D02FE00022C1F255
:10071000220296420AD00022C1F23102964205D04E
:100720000022C1F23202964220D100BF8A684AB14B
:10073000012A14BFC0F81490C0F810904FF0080BB5
:1007400014E000BF4FF0040B10E000BFCA6802F1D4
:10075000080B0BE04FF0000B08E000BFCA6802F185
:10076000040B03E0CA6802F10C0B00BF22460646E8
:10077000BAF1080F24BF203A0436376803FA02F5AD
:10078000AF430BFA02F23A433260CA79D2067FF5E0
:100790007FAF41F21807C4F202073A684FF60843E8
:1007A00042F001023A603A68CFF6FF7302F00102AC
:1007B0000192019A2AF0030272440F25D75804F0DF
:1007C0000C06B540AF43009D05FA06F63743D750F7
:1007D0004E6840F20C45F202DEF8082054BF22EACF
:1007E000090242EA0902CEF80820C4F201052A688B
:1007F000B70254BF22EA090242EA09022A60DEF87F
:100800000420B70354BF22EA090242EA0902CEF8E3
:1008100004200F23DEF80020F70354BF22EA090268
:1008200042EA0902CEF8002032E700BF02B0BDE87C
:10083000F08F0000C26802EA0103914341EA0341DC
:1008400001617047002A08BF090401617047000078
:1008500040F26810C2F200000068704740F20000E9
:1008600040F26811C2F20000C2F2000100780A688A
:10087000104408607047000080B542F20000C4F2E6
:100880000200016841F010010160032000F08EF8C1
:100890000F2000F005F800F027F8002080BD0000D0
:1008A00070B540F20006C2F2000640F2080132784C
:1008B000C2F200014FF47A730968B3FBF2F2044606
:1008C000B1FBF2F1084600F063FB0F2C4FF001057D
:1008D00008D838B94FF0FF3021460022002500F03B
:1008E00039F87460284670BD82B041F21800C4F235
:1008F00002000168022241F001010160016801F07B
:10090000010101910199416841F0805141604068C5
:1009100000F08050009000980420C4F201000168AB
:1009200062F31A61016002B070470000002848BFFE
:100930007047C1B200F01F00012202FA00F04EF22F
:100940000012CEF2000242EAD10121F00301086058
:100950007047000010B54EF60C5CCEF2000CDCF8CF
:100960000030C3F3022E8EF00704042C28BF0424A9
:10097000BEF103034FF0FF3E0EFA04F438BF00232C
:10098000A14399400EFA03F39A43114300F00F027A
:1009900000F160430901043A03F56443624400280E
:1009A00048BF02F10C03197010BD00004EF60C5147
:1009B000CEF200010A684FF6FF031A4060F30A22E4
:1009C00042F0806040F0FD70086070472DE9F04310
:1009D00081B0002800F0858042F20008C4F20208CD
:1009E0000446D8F800000D4600F0070088420CD2FB
:1009F000D8F8000020F007002843C8F80000D8F815
:100A0000000000F00700A8426BD1206841F2040901
:100A10008107C4F2020917D5410705D5D9F800109E
:100A200041F4E061C9F80010010705D5D9F80010BC
:100A300041F46051C9F80010D9F80010A26821F003
:100A4000F0011143C9F80010C00741D1D8F80000E7
:100A500000F00700A8420CD9D8F8000020F00700E9
:100A60002843C8F80000D8F8000000F00700A842AA
:100A700037D12068410707D5D9F80010E26821F482
:100A8000E0611143C9F80010000708D5D9F800004B
:100A9000216920F4605040EAC100C9F80000D9F88B
:100AA000002002F00C00082841F20020C0F27A0079
:100AB00050D143F24A33C2F38341C0F60003595C7C
:100AC000D2033BD440F60010C0F23D00484341E061
:100AD000606802280AD001282AD159F8041C890329
:100AE00008D4012001B0BDE8F08300BF59F8041C10
:100AF0008901F6D5D9F8001021F003010843C9F89F
:100B00000000FFF7A5FE064641F28837D9F800003D
:100B1000616800F00C00B0EB810F97D0FFF798FEF2
:100B2000801BB842F2D9032001B0BDE8F08300BFBA
:100B300059F8041C8907D4D5DCE700BFD9F8002098
:100B400043F24833C2F34042C0F600039A5C484384
:100B5000B0FBF2F0D9F8001042F61832C1F30311DD
:100B6000C0F60002515C40F2080220FA01F140F2A6
:100B70000400C2F200000068C2F200021160FFF738
:100B80008FFE002001B0BDE8F083000040F20800B5
:100B900041F20401C2F20000C4F2020100680968D7
:100BA00042F62832C1F30221C0F60002515CC8406F
:100BB0007047000040F2080041F20401C2F2000058
:100BC000C4F202010068096842F62832C1F3C2216A
:100BD000C0F60002515CC840704700002DE9F041AA
:100BE00082B0002868D00446007841F20006C007B1
:100BF000C4F2020625D0706800F00C0004281BD057
:100C0000706800F00C00082802D17068C00313D48B
:100C10006068002800F06881B0F5A02F00F07C81AA
:100C2000B0F5803F00F07C81306820F48030306087
:100C3000306820F4802076E13068800301D5606858
:100C4000D0B32078800718D5706810F00C0F07D04B
:100C5000706800F00C0008286ED17068C0036BD477
:100C60003068800702D52069012825D13068616984
:100C700020F0F80040EAC1003060207800071FD45F
:100C80002078400732D4E56995B1706800F00C0017
:100C9000082840F08F80012D0ED07068216A00F482
:100CA00080328A4208D1616A00F47010884203D110
:100CB000002002B0BDE8F081012002B0BDE8F08163
:100CC000A069002862D00020C4F242200121C0F8AF
:100CD0008014FFF7BDFD0546706A800700F18C8027
:100CE000FFF7B6FD401B0228F6D92AE1F06910F0A3
:100CF000805808D1F06940F08050F061F06900F050
:100D000080500090009847F20007C4F2000738684E
:100D1000C00529D4386840F480703860FFF798FD2A
:100D2000054600BF3868C0051ED4FFF791FD401B83
:100D30006428F7D905E100BF2069002840F20000CF
:100D4000C4F2422000F0828001210160FFF780FDA3
:100D5000054600BF306880073FF588AFFFF778FD94
:100D6000401B0228F6D9ECE0E068002800F0808003
:100D7000052800F09780012800F09880306A20F064
:100D800001003062306A20F0040092E00020C4F2DA
:100D900042200021C0F88014FFF75AFD054600BF2D
:100DA000706A80077FF56CAFFFF752FD401B022889
:100DB000F6D9C6E00027C4F2422700203866FFF7C4
:100DC00047FD022D05460BD13068800140F1BE8001
:100DD000FFF73EFD401B02284FF00300F4D968E7FF
:100DE000306880017FF564AFFFF732FD401B0228B9
:100DF0004FF00300F4D95CE740F20800C2F20000B3
:100E0000006844F6D351C1F26201A0FB0101480A17
:100E1000019000BF00BF0198411E002801913FF4DE
:100E20002FAF00BF0198411E002801913FF428AF69
:100E300000BF0198411E002801913FF421AF00BF7F
:100E40000198411E00280191E4D119E700210160B9
:100E5000FFF7FEFC054600BF306880077FF50DAF49
:100E6000FFF7F6FC401B02284FF00300F4D920E7FF
:100E7000306A20F001003062306A20F004003062F5
:100E8000FFF7E6FC054641F2883700BF306A80076D
:100E900020D5FFF7DDFC401BB8424FF00300F5D929
:100EA00007E700BF306A40F004003062306A40F06B
:100EB00001003062FFF7CCFC054641F2883700BFE5
:100EC000306A800706D4FFF7C3FC401BB842F7D94D
:100ED00037E000BFB8F1000F7FF4D5AEF06920F025
:100EE0008050F061CFE600BF306820F48030306081
:100EF000306820F480203060FFF7AAFC054600BF70
:100F0000306880037FF59DAEFFF7A2FC401B64288C
:100F10004FF00300F4D9CCE6306840F48020306014
:100F2000306840F480303060FFF792FC054600BF27
:100F3000306880033FF585AEFFF78AFC401B6428CC
:100F4000F6D9032002B0BDE8F08100BF206AB0F5F9
:100F5000803F05D17168A26821F4003111437160AE
:100F60007168626A21F474111143084370600120B2
:100F70003866FFF76DFC0446306880013FF598AE97
:100F8000FFF766FC001B02284FF00300F4D990E63F
:100F9000411E0020B0EB116F1CBF012070474EF2C4
:100FA0001002CEF2000251604EF62351CEF2000143
:100FB000F0230B700721906011607047B0B590F876
:100FC0003C20012A04BF0220B0BD01F108053CCD40
:100FD000D1E900CE23F47C5322F470521A432EF44C
:100FE000F0431A432CF4E0431A4324F4C0431A4359
:100FF0002A43C96922F480420368114359640021DD
:1010000080F83C100846B0BD10B590F83C20012A8D
:101010004FF002023FD080F83D200268D2F804E091
:10102000D2F808C00C682EF07003234340F6FF345A
:10103000C4F20004A242536010DCB2F1804F1FD012
:1010400040F20043C4F200039A4219D040F6000374
:10105000C4F200039A4213D017E000BF40F60043E9
:10106000C4F200039A420BD043F20043C4F20103DE
:101070009A4205D042F60043C4F201039A4204D1D9
:1010800049682CF08003194391600121002280F807
:101090003D1080F83C20104610BD0000002804BF21
:1010A0000120704710B5044690F83D0028B9002093
:1010B00084F83C00204600F085F8022084F83D00CA
:1010C000206840F6FF330268C4F2000343F2004C8C
:1010D0009842C4F2010C21DCB0F1804F2CD040F2D8
:1010E0000041C4F20001884226D040F60001C4F25B
:1010F0000001884220D0984224DCB0F1804F2FD0EC
:1011000040F20041C4F20001884229D040F60001BB
:10111000C4F20001884223D026E000BF40F600411F
:10112000C4F20001884207D0604505D042F6004174
:10113000C4F201018842DED1A16822F070020A43A4
:101140009842DADD40F60041C4F20001884207D03F
:10115000604505D042F60041C4F20101884203D146
:10116000216922F440720A43A36922F08001D4F875
:1011700004E0E268194360450160C262C0F828E0FB
:1011800005D042F60041C4F20101884201D16169F3
:10119000016301214161002084F8461084F83E106B
:1011A00084F83F1084F8401084F8411084F842100D
:1011B00084F8431084F8441084F8451084F83D10F6
:1011C00010BD000081B0006842F60041C4F2010188
:1011D000884201D001B0704741F21800C4F2020009
:1011E000016841F400610160006800F40060009053
:1011F000009801B07047000080B590F83C20012AAB
:101200004FF0020200F0C28080F83D20D0F800C00C
:101210004FF67772DCF8083023EA0202CCF8082097
:101220000B684F2B28DC1F2B44DD202B45D0302BA7
:1012300043D0402B40F0AC80D1F804E0C968DCF822
:101240002030DCF8202022F00102CCF82020DCF84D
:10125000182022F0F00242EA011123F00A0242EAC9
:101260000E02CCF81810CCF82020DCF8081041F061
:10127000470121F0300180E06F2B27DDB3F5005FDF
:1012800048D0B3F5805F7AD0702B40F08180D1E9EF
:1012900001E3C968DCF8082043EA0E0322F47F4228
:1012A00043EA01211143CCF80810DCF8081041F0A2
:1012B000770162E00BB1102B6AD1DCF8081021F045
:1012C0007001194341F0070157E000BF502B35D0A2
:1012D000602B5DD1D1F804E0C968DCF82030DCF87F
:1012E000202022F01002CCF82020DCF8182022F474
:1012F000704242EA013123F0A00242EA0E12CCF819
:101300001810CCF82020DCF8081041F0670121F01B
:10131000100132E0D1E901E3C968DCF8082043EAB2
:101320000E0322F47F4243EA01211143CCF8081056
:10133000DCF8081041F480411FE000BFD1F804E060
:10134000C968DCF82030DCF8202022F00102CCF85B
:101350002020DCF8182022F0F00242EA011123F0EC
:101360000A0242EA0E02CCF81810CCF82020DCF871
:10137000081041F0570121F02001CCF8081000229C
:10138000012180F83D10002180F83C10104680BDFE
:101390000122F5E72DE9F04190F83C30012B04BF24
:1013A0000220BDE8F0814FEAB202032A00F21C815C
:1013B000DFE802F0024690DA036843F200461D6A55
:1013C0001A6A25F0020522F001021A621A465C68C8
:1013D00052F818EF8F68D1F800C0C4F20106B3428A
:1013E00045EA070505D042F60047C4F20107BB42B3
:1013F00005D1CF6825F00C0527F004073D43B34223
:1014000005D042F60046C4F20106B34205D1D1E947
:10141000056724F4407434433C432EF0730747EAD5
:101420000C075C609F614F6809695F631D629F697B
:1014300047F008079F619F6927F004079F61C9E093
:10144000036843F200461D6A1A6A25F0200522F05F
:1014500010021A621A46D3F804C052F8188F8F6827
:10146000D1F800E0C4F20106B34245EA071505D001
:1014700042F60047C4F20107BB4207D1CF686FF0C4
:10148000400425F0C00504EA07142543B34205D003
:1014900042F60044C4F20104A34206D1D1E9054654
:1014A0002CF44067264347EA860C28F4E64444EAD5
:1014B0000E27C3F804C09F614F6809699F631D62CE
:1014C0009F6947F400679F619F6927F480679F6168
:1014D0007FE000BF036843F200461D6A1A6A25F4E4
:1014E000007522F480721A621A46D3F804C052F8CA
:1014F0001CEF8F68D1F80080C4F20106B34245EAC0
:10150000072505D042F60047C4F20107BB4208D1C7
:10151000CF6840F2FF443F0225F4406527EA040407
:101520002543B34205D042F60044C4F20104A3426D
:1015300006D1D1E905462CF44057264347EA061C5C
:101540002EF0730747EA0807C3F804C0DF614F684D
:101550000969DF631D62DF6947F00807DF61DF6942
:1015600027F00407DF6135E0036843F20047D3F852
:1015700020C01A6AC4F2010722F480521A621A4685
:101580005C6852F81C5FD1F800E08E68BB4205D061
:1015900042F60047C4F20107BB4204D14F6924F46C
:1015A000804444EA87142CF4005747EA063725F4B0
:1015B000E64646EA0E265C60DE614E6809691E64F6
:1015C0001F62DF6947F40067DF61DF6927F4806726
:1015D000DF6109021368194311600021002280F8BD
:1015E0003C200846BDE8F0810121002280F83C2023
:1015F0000846BDE8F0810000002804BF01207047C4
:1016000010B5044690F83D0028B9002084F83C004D
:10161000204600F085F8022084F83D00206840F65E
:10162000FF330268C4F2000343F2004C9842C4F254
:10163000010C21DCB0F1804F2CD040F20041C4F20B
:101640000001884226D040F60001C4F20001884221
:1016500020D0984224DCB0F1804F2FD040F20041DE
:10166000C4F20001884229D040F60001C4F2000112
:10167000884223D026E000BF40F60041C4F20001BA
:10168000884207D0604505D042F60041C4F201010E
:101690008842DED1A16822F070020A439842DADD66
:1016A00040F60041C4F20001884207D0604505D0F1
:1016B00042F60041C4F20101884203D1216922F4BB
:1016C00040720A43A36922F08001D4F804E0E26882
:1016D000194360450160C262C0F828E005D042F6B7
:1016E0000041C4F20101884201D161690163012115
:1016F0004161002084F8461084F83E1084F83F10C1
:1017000084F8401084F8411084F8421084F84310A3
:1017100084F8441084F8451084F83D1010BD000092
:101720007047000041B1082910D0042914BF00F10E
:10173000410200F13F020BE090F83E20012A1CBF5D
:1017400001207047022280F83E2013E000F14002A1
:101750001278012A1CBF012070470222082907D0F5
:10176000042914BF80F8412080F83F2002E000BF28
:1017700080F84020006801F01F010122036A02FA8C
:1017800001F123EA01020262026A114340F6FF32CC
:10179000C4F20002904201620EDCB0F1804F25D00D
:1017A00040F20041C4F2000188421FD040F600011F
:1017B000C4F2000118E000BF40F60041C4F200018D
:1017C000884213D043F20042C4F2010242F60041C3
:1017D0009042C4F2010101D088420ED1436C904284
:1017E00043F40043436401D0884206D1816801F08C
:1017F0000701062904BF00207047016841F001017C
:101800000160002070470000704700007047000032
:10181000B0B582B0044600680168C368426901F04F
:101820002F05202D03F0200506D12DB1204602B052
:10183000BDE8B04000F034BF5FEA017C1EBF02F09B
:10184000010E03F4907212EB0E0253D1226B012AA7
:1018500005D111F0100218BF13F0100236D10A069C
:1018600022D513F080021FD094F8411021293FD1D6
:10187000A168B1F5805F03D12169002900F0708271
:10188000216A4A1C226209784160E18C01390A040C
:10189000E1842DD1C16821F08001C160C16841F0AF
:1018A0004001C16002B0B0BD490621D513F040012E
:1018B0001ED0C16821F04001C1602021204684F87B
:1018C000411002B0BDE8B04000F0ACBB0021019176
:1018D000016801914168019101994069400613D462
:1018E000A08DE18DE28D002A18BF884240F0BA81B8
:1018F00002B0B0BDCA0718BF13F4807240F0B680C2
:101900004A0700F1B980BEE0E06B016849688AB21D
:10191000002AEDD0A38D9A42EAD2E1858069202881
:1019200000F09C80206850E8030F216820F480704C
:1019300041E80302DAB1206850E8030F216820F47F
:10194000807041E8030292B1206850E8030F2168DB
:1019500020F4807041E803024AB1206850E8030F88
:10196000216820F4807041E80302002ADAD120685F
:1019700050E8050F216820F0010041E80502DAB1C6
:10198000206850E8050F216820F0010041E80502B9
:1019900092B1206850E8050F216820F0010041E86D
:1019A00005024AB1206850E8050F216820F00100C7
:1019B00041E80502002ADAD1206850E8050F2168C5
:1019C00020F0400041E80502DAB1206850E8050F38
:1019D000216820F0400041E8050292B1206850E8FB
:1019E000050F216820F0400041E805024AB1206857
:1019F00050E8050F216820F0400041E80502002A68
:101A0000DAD1202084F8420000202063206850E8CA
:101A1000030F216820F0100041E80302DAB12068CA
:101A200050E8030F216820F0100041E8030292B152
:101A3000206850E8030F216820F0100041E80302FD
:101A40004AB1206850E8030F216820F0100041E8F7
:101A50000302002ADAD1E06BFEF71EFD022060636C
:101A6000A08DE18D401A81B2204674E1626C42F093
:101A7000010262644A0706D5BEF1000F03D0626C12
:101A800042F0020262648A0706D5BEF1000F03D05D
:101A9000626C42F004026264BCF1000F09D545EAB1
:101AA0000E02B2FA82F2520903D1626C42F00802CD
:101AB0006264626C002A3FF41BAF11F0200118BF72
:101AC000002D03D0204600F0EBFD20684069616CDA
:101AD00000F0400001F00801401800F0B58000BFA0
:101AE000206850E8030F216820F4907041E8030259
:101AF000BAB3206850E8030F216820F4907041E8E1
:101B0000030272B3206850E8030F216820F490703C
:101B100041E803022AB3206850E8030F216820F44B
:101B2000907041E80302002ADAD11AE0206850E8F8
:101B3000050F216820F0010041E80502DAB12068B4
:101B400050E8050F216820F0010041E8050292B13C
:101B5000206850E8050F216820F0010041E80502E7
:101B60004AB1206850E8050F216820F0010041E8E3
:101B70000502002ADAD1206B012824D1206850E820
:101B8000030F216820F0100041E80302DAB1206859
:101B900050E8030F216820F0100041E8030292B1E1
:101BA000206850E8030F216820F0100041E803028C
:101BB0004AB1206850E8030F216820F0100041E886
:101BC0000302002ADAD1202084F84200002020639A
:101BD0002068406940063FD5206850E8050F21681D
:101BE00020F0400041E80502DAB1206850E8050F16
:101BF000216820F0400041E8050292B1206850E8D9
:101C0000050F216820F0400041E805024AB1206834
:101C100050E8050F216820F0400041E80502002A45
:101C2000DAD1E06BC0B142F29561C0F600014163C8
:101C3000FEF756FC00283FF45BAEE06B416B02B050
:101C4000BDE8B040084700BF2046FFF7DFFD002099
:101C5000606402B0B0BD00BF204602B0BDE8B04035
:101C6000FFF7D4BD401A216851E8031F226821F410
:101C7000907142E80313DBB1216851E8031F226829
:101C800021F4907142E8031393B1216851E8031FD6
:101C9000226821F4907142E803134BB1216851E8A6
:101CA000031F226821F4907142E80313002BDAD15C
:101CB000216851E8051F226821F0010142E805135F
:101CC000DBB1216851E8051F226821F0010142E8DB
:101CD000051393B1216851E8051F226821F0010125
:101CE00042E805134BB1216851E8051F226821F035
:101CF000010142E80513002BDAD1202184F84210BB
:101D000000212163216851E8031F226821F010019E
:101D100042E80313DBB1216851E8031F226821F078
:101D2000100142E8031393B1216851E8031F2268B0
:101D300021F0100142E803134BB1216851E8031F61
:101D4000226821F0100142E80313002BDAD10222AD
:101D500081B22046626302B0BDE8B040FFF754BDD7
:101D6000216A31F8022B6FF35F22426021628CE519
:101D7000002804BF0120704710B5044690F84100C8
:101D800028B9002084F84000204600F063F82420A1
:101D900084F841002068D4E90212C36823F4005398
:101DA000C360036923F440531A430261D4E9042356
:101DB0001143C268194341F20C639A431143C16055
:101DC0004169A26921F44071114343F60002C4F253
:101DD00001029042416103D0FEF7D8FE02E000BF4D
:101DE000FEF7E8FE6268192148439100B0FBF1F06C
:101DF00048F21F51C5F2EB11A0FB01235A094FF61F
:101E00009C73C0F6FF7302FB0300322303EB001048
:101E1000A0FB0101F02303EA5113206803EB021237
:101E2000C1F3431111448160016921F490410161C2
:101E3000416921F02A014161C16841F40051C1604A
:101E400000202021606484F8411084F8421060630F
:101E500010BD000070B586B040F60004C4F2010465
:101E6000006804F5405100268842049602D006B06E
:101E700070BD00BF41F21800C4F20200016802AD5B
:101E800041F480410160016801F4804101910199B0
:101E9000016841F0040101600068294600F0040077
:101EA000019001984FF400700290022003900320EB
:101EB00005902046FEF7C0FB4FF48060CDE9020696
:101EC000204629460496FEF7B7FB25200021002274
:101ED000FEF740FD2520FEF729FD06B070BD00008D
:101EE00090F84230202B1CBF0220704700294FF091
:101EF000010318BF002A01D118467047002303636D
:101F0000816222218285C285436480F84210016982
:101F1000006819B1C16841F48071C1604169002352
:101F200041F001014161C16841F02001C1601846E2
:101F30007047000010B5014641F20000C4F20100F4
:101F4000096800F5205240F270049142C2F2000488
:101F50000AD040F22010A11CC2F200000122BDE80C
:101F60001040FFF7BDBF00BF6278A178002A08BF0C
:101F70002C2919D0012A08BF122923D0022A2FD1D7
:101F80002278531CD8B204EB4202062823709180B9
:101F900008BF5B292AD00728DBD300202080C4E9B2
:101FA0000100E060D5E700BF227801216170511C7B
:101FB000217004EB42012C228A801021FEF73AFCAA
:101FC000C7E700BF227802216170511C217004EB29
:101FD000420112228A801021FEF72CFCB9E700BFD3
:101FE00000202080C4E90100E060B2E72089628916
:101FF0006421484302EB8201A28900EB41001044B6
:1020000040F280013030C2F200010870C1B203A07A
:10201000FEF700F9002060709BE700BF25640D0A01
:102020000000000070470000FEE700002DE9F04FBF
:1020300085B041F21800C4F20200016840F6000BBE
:1020400041F0100101600168C4F2010B01F01001C0
:102050000191019901680BF5A05641F080010160E2
:102060000168002201F080010191019901683B277C
:1020700041F00401016001684FF0000801F0040123
:1020800001910199016841F04001016000683B2124
:1020900000F04000019001983046FEF7D3FB58460F
:1020A0000A2100224FF00A09FEF7CCFB0BF5006570
:1020B0002846102101220124FEF7C4FBCDE901745A
:1020C00001AF4FF0020A30463946CDF80C80CDF80A
:1020D00010A0FEF7B1FA58463946CDE90194CDE992
:1020E000038AFEF7A9FA102001A981E81105284604
:1020F0003946FEF7A1FA05B0BDE8F08F70B59CB087
:1021000042F6004540F2D800C4F201050021C2F2B7
:102110000000472244F61F6380261691CDE9141172
:102120001191CDE90F11CDE90D11CDE90B11CDE9DB
:102130000911CDE90711CDE90511CDE90311CDE96B
:102140000111C0E90052C0E90213C0E9041186611F
:10215000FEF7A4FF002818BFFEF798F94FF480504F
:10216000139040F2D800C2F2000013A9FFF744F820
:10217000002818BFFEF78AF940F2D800C2F200002A
:10218000FFF73AFA002818BFFEF780F940F2D800AE
:102190000024C2F2000010A9CDE91044FEF734FF7C
:1021A000002818BFFEF772F96020CDE9090440F25B
:1021B000D800C2F2000009A90022CDE90B44CDE904
:1021C0000D440F94FFF7E6F8002818BFFEF75EF9FC
:1021D00040F2D800C2F2000009A90422FFF7DAF8A1
:1021E000002818BFFEF752F940F2D800C2F20000F2
:1021F00009A90822FFF7CEF8002818BFFEF746F914
:1022000040F2D8044FF40050C2F2000400260690B9
:1022100001A920460596CDE90366CDE90166089639
:10222000FEF7CCFE002818BFFEF730F920681A969A
:10223000A84201D01CB070BD41F21800C4F20200E7
:10224000016841F040010160006818A900F04000F9
:10225000179017984FF428501890022019901B904F
:10226000A5F5A050FEF7E8F90420C4F201000168CA
:1022700041F0E06141F0C00101601CB070BD0000A0
:1022800080B540F2201043F60001C2F20000C4F213
:10229000010100234FF00C0C4FF4E13280E80E00F6
:1022A000C0E90333C0E905C3C361FFF761FD00283E
:1022B00008BF80BDBDE88040FEF7E8B8FEE700003B
:1022C000FEE7000070B540F600040025C4F20104EA
:1022D000A5F15000C0B200F0F7FA0020002600F08F
:1022E000F3FA102000F0F0FA204602210122FEF756
:1022F000A9FA204608210122FEF7A4FA2046082167
:102300000022FEF79FFA204602210022FEF79AFAE9
:10231000782000F04DFA204602210122FEF792FAC1
:10232000204602210022FEF78DFA402000F040FAFC
:10233000204602210122FEF785FA204602210022D2
:10234000FEF780FA002000F033FA20460221012235
:10235000FEF778FA204602210022FEF773FA2046A3
:1023600002210122FEF76EFA204608210022FEF724
:1023700069FA204608210122FEF764FA701C46B271
:10238000B6F1FF3FB0DCE8B20135072828BF70BDC9
:102390009EE7000080B58D2000F096FA142000F032
:1023A00093FAAF20BDE8804000F08EBA80B54FF4BC
:1023B0004870FEF72DF9AE2000F086FA002000F0FC
:1023C00083FA102000F080FA402000F07DFAB0205F
:1023D00000F07AFA812000F077FAFF2000F074FA1A
:1023E000A12000F071FAA62000F06EFAA82000F0FB
:1023F0006BFA3F2000F068FAC82000F065FAD3209D
:1024000000F062FA002000F05FFAD52000F05CFADC
:10241000802000F059FAD82000F056FA052000F08C
:1024200053FAD92000F050FAF12000F04DFADA20EA
:1024300000F04AFA122000F047FADB2000F044FADC
:10244000302000F041FA8D2000F03EFA142000F018
:102450003BFAAF20BDE8804000F036BA2DE9F047E6
:102460000C4640B2002848BF023420EAE076A4F1CE
:102470005000C0B21F46A2F1200500F025FA10203E
:1024800040EA161A504600F01FFA06F00F084046C0
:1024900000F01AFA102FE9B24AD142F65852080158
:1024A000C0F60002105C02EB011600F05FFA7078D3
:1024B000B778F57896F8049000F058FA384600F0AE
:1024C00055FA284600F052FA484600F04FFA707963
:1024D00000F04CFAB07900F049FAF07900F046FAD1
:1024E000A4F14F00C0B200F0EFF95FFA8AF000F0FB
:1024F000EBF9404600F0E8F9307A00F037FA707AEC
:1025000000F034FAB07A00F031FAF07A00F02EFAE6
:10251000307B00F02BFA707B00F028FAB07B00F0E3
:1025200025FA06F10F000078BDE8F04700F01EBA6A
:1025300042F6303201EB4101C0F6000212F8110000
:1025400002EB410700F012FA7878BC78FD783E790A
:1025500000F00CFA204600F009FA284600F006FACE
:10256000304600F003FA781D0078BDE8F04700F02F
:10257000FDB900002DE9F04F85B0002B04910390C8
:102580007CD00E981C464508981E0090584217466D
:10259000591E4FF000085FFA80FB42F210790026C6
:1025A0004FF0000A0291019212E000BF0126039948
:1025B00040F0300205FB08110E9BC8B20499D2B25C
:1025C000FFF74CFF08F10108A0450AF1010A55D0B8
:1025D0006FEA0A00C0B2584502D101202AE000BFCC
:1025E00000996FEA0800A1EB0801C9B2032900EBCA
:1025F000040101D2012009E001F0FC0200230120C6
:102600000433DFB2974200FB09F0F9D1019F11F0CA
:1026100003010FD0012903D100EB8000400009E045
:102620004FF47A72424302294FF0640108BF00FB65
:1026300001F21046B7FBF0F04CF6CD41CCF6CC41A0
:10264000A0FB0112D10801EB8101002EA0EB41009B
:10265000ADD102994145AADD0028A7D1039804997C
:1026600005FB08000E9BC0B22022FFF7F7FE0026F4
:1026700008F10108A0450AF1010AA9D105B0BDE899
:10268000F08F00007047000070470000FEF7E6B8CA
:1026900070470000406A0021C185C184FFF7B6B8C9
:1026A00081B090F84210222921D183680246B3F507
:1026B000805F09D152F8281F52F8183C002B63D0D4
:1026C00003685B680AE000BF52F8281F13B903696A
:1026D000002BF5D003685B6803F07F030B70116873
:1026E00001311160C18D01390A04C18502D001B0E8
:1026F000704700BF0168CA6822F02002CA60CA6839
:1027000022F48072CA604A6922F001024A612021E3
:1027100080F8421000214163026B012A3CD1016321
:10272000016851E8031F026821F0100142E8031319
:10273000DBB1016851E8031F026821F0100142E893
:10274000031393B1016851E8031F026821F01001DF
:1027500042E803134BB1016851E8031F026821F0FE
:10276000100142E80313002BDAD101680A68D2068F
:1027700006D5002200920A680092496800910099EB
:10278000818D01B0FFF740B8026852686FF35F2295
:1027900021F8022B8162A5E701B0FFF7CBBB000057
:1027A00040F22010C2F20000FFF732B8FEE700004E
:1027B000B0B540F60004C4F20104054620460221EB
:1027C0000022FEF73FF8EA0920460821FEF73AF812
:1027D000204602210122FEF735F820460221002280
:1027E000FEF730F8C5F3801220460821FEF72AF8DC
:1027F000204602210122FEF725F820460221002270
:10280000FEF720F8C5F3401220460821FEF71AF81B
:10281000204602210122FEF715F82046022100225F
:10282000FEF710F8C5F3001220460821FEF70AF85B
:10283000204602210122FEF705F82046022100224F
:10284000FEF700F8C5F3C00220460821FDF7FAFFA5
:10285000204602210122FDF7F5FF20460221002239
:10286000FDF7F0FFC5F3800220460821FDF7EAFFDF
:10287000204602210122FDF7E5FF20460221002229
:10288000FDF7E0FFC5F3400220460821FDF7DAFF1F
:10289000204602210122FDF7D5FF20460221002219
:1028A000FDF7D0FF05F0010220460821FDF7CAFF21
:1028B000204602210122FDF7C5FF20460221002209
:1028C000BDE8B040FDF7BEBFB0B540F60004C4F2AD
:1028D00001040546204602210122FDF7B3FF2046F0
:1028E00008210122FDF7AEFF204608210022FDF756
:1028F000A9FF204602210022FDF7A4FF7820FFF760
:1029000057FF204602210122FDF79CFF20460221AD
:102910000022FDF797FF0020FFF74AFF2046022123
:102920000122FDF78FFF204602210022FDF78AFFDA
:102930002846FFF73DFF204602210122FDF782FFD6
:10294000204602210022FDF77DFF204602210122C0
:10295000FDF778FF204608210022FDF773FF20468F
:1029600008210122BDE8B040FDF76CBFB0B540F6CC
:102970000004C4F201040546204602210122FDF7AD
:1029800061FF204608210122FDF75CFF2046082157
:102990000022FDF757FF204602210022FDF752FFDB
:1029A0007820FFF705FF204602210122FDF74AFFAC
:1029B000204602210022FDF745FF4020FFF7F8FEE8
:1029C000204602210122FDF73DFF20460221002280
:1029D000FDF738FF2846FFF7EBFE204602210122D3
:1029E000FDF730FF204602210022FDF72BFF204695
:1029F00002210122FDF726FF204608210022FDF7D3
:102A000021FF204608210122BDE8B040FDF71ABF92
:102A10007047000043F60001C4F201010A68520643
:102A200009D40A6852065CBF0A685FEA426202D4AF
:102A30000A685206F2D5C2B24A60704790B0FDF7FC
:102A40001BFF00240120CDE90B44CDE90944069089
:102A50000A904FF4E0104FF4803102250F9006A841
:102A6000CDE90714CDE90D51FEF7B8F820B1EFF329
:102A7000108072B6FEE700BF0F20CDE901054FF4CC
:102A80008060CDE9040401A802210394FDF79EFFB4
:102A900020B1EFF3108072B6FEE700BFFFF7C6FA71
:102AA000FFF7EEFBFFF72AFB40F2201040F2720125
:102AB000C2F20000C2F2000101220124FFF710FA65
:102AC00040F2D805C2F2000528460021FEF72AFE92
:102AD00028460421FEF726FE28460821FEF722FE9E
:102AE0000BA0FDF797FBFFF761FCFFF753FC1025E8
:102AF000FFF7E8FB64203221224603230095FFF70D
:102B000039FD4FF4FA70FDF783FD0134F0E700BFA3
:102B100068656C6C6F0000000000000000000000A1
:102B20000102030406070809000000000102030473
:102B30000000000000000000002F0000000007005F
:102B4000070000147F147F1400242A7F2A120062D9
:102B50006408132300364955225000000503000085
:102B600000001C224100000041221C000014083E0D
:102B700008140008083E0808000000A060000008D3
:102B80000808080800006060000000201008040227
:102B9000003E5149453E0000427F400000426151E5
:102BA0004946002141454B31001814127F1000277F
:102BB00045454539003C4A49493000017109050342
:102BC00000364949493600064949291E0000363673
:102BD00000000000563600000008142241000014D6
:102BE00014141414000041221408000201510906B3
:102BF00000324959513E007C1211127C007F494934
:102C00004936003E41414122007F4141221C007F64
:102C100049494941007F09090901003E4149497A72
:102C2000007F0808087F0000417F410000204041EC
:102C30003F01007F08142241007F40404040007F58
:102C4000020C027F007F0408107F003E4141413E9C
:102C5000007F09090906003E4151215E007F0919E4
:102C600029460046494949310001017F0101003FE1
:102C70004040403F001F2040201F003F4038403F61
:102C800000631408146300070870080700615149C5
:102C9000454300007F41410000552A552A55000058
:102CA00041417F00000402010204004040404040D6
:102CB000000001020400002054545478007F48446E
:102CC000443800384444442000384444487F0038A5
:102CD0005454541800087E0901020018A4A4A47CCE
:102CE000007F080404780000447D40000040808498
:102CF0007D00007F102844000000417F4000007CE0
:102D000004180478007C08040478003844444438EB
:102D100000FC242424180018242418FC007C080437
:102D2000040800485454542000043F444020003C10
:102D30004040207C001C2040201C003C4030403C97
:102D4000004428102844001CA0A0A07C0044645427
:102D50004C4414141414141400000000000000006B
:102D60000000000000000000000000F8000000006B
:102D7000000000333000000000100C06100C0600AC
:102D8000000000000000000040C07840C078400013
:102D9000043F04043F040400007088FC0830000075
:102DA000001820FF211E0000F008F000E0180000CD
:102DB00000211C031E211E0000F008887000000086
:102DC0001E2123241927211010160E0000000000D8
:102DD0000000000000000000000000E018040200F5
:102DE000000000071820400000020418E000000066
:102DF0000040201807000000404080F08040400064
:102E00000202010F01020200000000F000000000B9
:102E10000101011F0101010000000000000000008D
:102E200080B0700000000000000000000000000002
:102E3000000101010101010100000000000000008B
:102E40000030300000000000000000008060180426
:102E5000006018060100000000E010080810E00003
:102E6000000F102020100F00001010F800000000CC
:102E70000020203F20200000007008080888700013
:102E80000030282422213000003008888848300093
:102E90000018202020110E000000C02010F80000B3
:102EA00000070424243F240000F80888880808004C
:102EB0000019212020110E0000E010888818000061
:102EC000000F112020110E0000380808C838080033
:102ED0000000003F000000000070880808887000B3
:102EE000001C222121221C0000E010080810E00034
:102EF0000000312222110F00000000C0C0000000BD
:102F000000000030300000000000008000000000E1
:102F100000008060000000000000804020100800D9
:102F200000010204081020004040404040404000A2
:102F3000040404040404040000081020408000007D
:102F40000020100804020100007048080808F00082
:102F50000000003036010000C030C828E810E00052
:102F60000718272423140B000000C038E0000000DD
:102F7000203C23020227382008F888888870000047
:102F8000203F202020110E00C0300808080838001B
:102F9000071820202010080008F808080810E00092
:102FA000203F202020100F0008F88888E808100033
:102FB000203F20202320180008F88888E808100007
:102FC000203F200003000000C0300808083800003F
:102FD00007182020221E020008F808000008F80840
:102FE000203F210101213F20000808F808080000C7
:102FF0000020203F2020000000000808F8080800FA
:10300000C08080807F00000008F888C02818080071
:10301000203F20012638200008F8080000000000AA
:10302000203F20202020300008F8F800F8F80800A1
:10303000203F003F003F200008F830C00008F8089B
:10304000203F200007183F00E01008080810E000AB
:103050000F10202020100F0008F808080808F000C2
:10306000203F210101010000E01008080810E000E5
:103070000F18242438504F0008F88888888870007A
:10308000203F2000030C302000708808080838001A
:103090000038202121221C00180808F80808180010
:1030A0000000203F2000000008F808000008F80891
:1030B000001F202020201F000878880000C8380842
:1030C000000007380E010000F80800F80008F800BA
:1030D000033C0700073C0300081868808068180854
:1030E00020302C03032C30200838C800C8380800D2
:1030F0000000203F2000000010080808C838080021
:103100002038262120201800000000FE02020200C4
:103110000000007F40404000000C30C00000000074
:10312000000000010638C00000020202FE0000009C
:10313000004040407F000000000004020202040042
:10314000000000000000000000000000000000007F
:103150008080808080808080000202040000000067
:10316000000000000000000000008080808000005F
:103170000019242222223F2008F80080800000004D
:10318000003F112020110E00000000808080000010
:10319000000E112020201100000000808088F8001F
:1031A000000E112020103F20000080808080000051
:1031B000001F222222221300008080F088888818B5
:1031C0000020203F202000000000808080808000C0
:1031D000006B94949493600008F800808080000055
:1031E000203F210000203F20008098980000000030
:1031F0000020203F20200000000000809898000060
:1032000000C08080807F000008F80000808080007F
:10321000203F24022D302000000808F800000000A4
:103220000020203F2020000080808080808080005F
:10323000203F20003F20003F8080008080800000F1
:10324000203F210000203F2000008080808000007F
:10325000001F202020201F008080008080000000B0
:1032600080FFA12020110E000000008080808000DF
:10327000000E112020A0FF808080800080808000D0
:1032800020203F21200001000000808080808000FD
:103290000033242424241900008080E08080000072
:1032A0000000001F202000008080000000808000BF
:1032B000001F202020103F20808080000080808020
:1032C00000010E30080601008080008000808080B0
:1032D0000F300C030C300F000080800080808000D5
:1032E0000020312E0E312000808080000080808000
:1032F00080818E70180601000080808080808000B0
:103300000021302C2221300000000000807C0202CD
:1033100000000000003F404000000000FF000000EF
:1033200000000000FF0000000002027C800000009E
:103330000040403F000000000006010102020404BA
:10334000000000000000000001020203040506075F
:1033500008090A0B0C0D0E0F101000008033000836
:1033600000000020100000006C01000890330008ED
:103370001000002060070000880100080000000025
:1033800001000000100000000024F4000000000014
:0400000508000131BD
:00000001FF
