:020000040800F2
:1000000060040020450100084D17000899160008FB
:10001000491700088D010008791800080000000049
:10002000000000000000000000000000551700085C
:10003000910100080000000051170008591700083E
:100040005F0100085F0100085F0100085F01000810
:100050005F0100085F0100085F0100085F01000800
:100060005F0100085F0100085F0100085F010008F0
:100070005F0100085F0100085F0100085F010008E0
:100080005F0100085F0100085F0100085F010008D0
:100090005F0100085F0100085F0100085F010008C0
:1000A0005F0100085F0100085F0100085F010008B0
:1000B0005F0100085F0100085F0100085F010008A0
:1000C0005F0100085F0100085F0100085F01000890
:1000D0005F0100086D1800085F0100085F0100085B
:1000E0005F0100085F0100085F0100085F01000870
:1000F0005F0100085F0100085F0100085F01000860
:100100005F0100085F0100085F0100085F0100084F
:100110005F0100085F0100085F0100085F0100083F
:100120005F0100085F0100085F0100085F0100082F
:10013000DFF80CD000F018F800480047A1180008BC
:10014000600400200648804706480047FEE7FEE7B7
:10015000FEE7FEE7FEE7FEE7FEE7FEE7FEE7FEE777
:100160005D17000831010008064C074D06E0E06805
:1001700040F0010394E8070098471034AC42F6D3EE
:10018000FFF7DAFFE4190008041A0008FEE7000090
:1001900070470000EFF3108072B600BFFEE700006A
:1001A000014690F82100022816D10868D1E90FC352
:1001B000026822F00E020260026822F00102026070
:1001C000012000FA03F2CCF8042081F8210000207D
:1001D000002281F82020704704208863012000223B
:1001E00081F820207047000080B590F82110022986
:1001F00028D1026840F2040C1368C4F2020C23F008
:100200000E03136013680CF17C018A4223F0010194
:1002100011601BD940F20841C4F202018A4249D060
:1002200040F21C41C4F202018A4247D040F2304100
:10023000C4F202018A4245D14FF48073CCF80034F5
:100240005DE000BF04218163012080BD4321C4F231
:1002500002018A420EDD6B21C4F202018A421BDCDC
:100260004421C4F202018A423CD05821C4F2020166
:100270008A4233E00821C4F202018A4236D01C21AE
:10028000C4F202018A4237D03021C4F202018A420C
:1002900024D14FF4807230E06C21C4F202018A4212
:1002A00026D08021C4F202018A4217D14FF0807219
:1002B00023E000BF0123CCF8003420E01023CCF869
:1002C00000341CE00CF588614FF480338A4208BF8B
:1002D0004FF48053CCF8003411E000BF4FF480326B
:1002E0000BE000BF4FF4805207E000BF012204E0A2
:1002F0004FF4801201E000BF1022CCF80020012151
:1003000080F82110426B002180F820100AB190473C
:100310000021084680BD0000B0B5044600F014F985
:10032000054640F20400C2F200000078611C18BFCC
:10033000044400BF00F008F9401BA042FAD3B0BD4E
:100340002DE9F04F82B0D1F800C0BCF1000F00F0F1
:10035000F180A0F1804241F60045A2F58432C4F25A
:10036000010540F2004E4FEAB2240627A842C4F22B
:10037000010E08BF0527052C4FF000044FF00108BF
:100380004FF00F034FF0000A4FF0000B38BF4FEA59
:10039000B22700970AE000BFD1F800C00AF1010AB5
:1003A0003CFA0AF204F1040400F0C48008FA0AF9E5
:1003B0001CEA090FF0D04E684FF6FF72C1F210022E
:1003C000964211DC122E55D8DFE806F0340A444874
:1003D000545454545454545454545454544C50003D
:1003E000D1F80CB046E000BF4FF6FF72C1F2210217
:1003F00096420FDC0022C1F2110296421AD000226E
:10040000C1F21202964215D00022C1F22102964298
:1004100010D02FE00022C1F2220296420AD0002220
:10042000C1F23102964205D00022C1F23202964258
:1004300020D100BF8A684AB1012A14BFC0F81490C5
:10044000C0F810904FF0080B14E000BF4FF0040B01
:1004500010E000BFCA6802F1080B0BE04FF0000B80
:1004600008E000BFCA6802F1040B03E0CA6802F1A9
:100470000C0B00BF22460646BAF1080F24BF203AF3
:100480000436376803FA02F5AF430BFA02F23A4337
:100490003260CA79D2067FF57FAF41F21807C4F205
:1004A00002073A684FF6084342F001023A603A68A0
:1004B000CFF6FF7302F001020192019A2AF00302C3
:1004C00072440F25D75804F00C06B540AF43009D89
:1004D00005FA06F63743D7504E6840F20C45F20253
:1004E000DEF8082054BF22EA090242EA0902CEF8E7
:1004F0000820C4F201052A68B70254BF22EA0902A3
:1005000042EA09022A60DEF80420B70354BF22EA57
:10051000090242EA0902CEF804200F23DEF8002087
:10052000F70354BF22EA090242EA0902CEF800208A
:1005300032E700BF02B0BDE8F08F0000002A08BF1C
:10054000090401617047000040F25C00C2F2000043
:100550000068704740F2040040F25C01C2F2000003
:10056000C2F2000100780A68104408607047000079
:1005700080B542F20000C4F20200016841F01001AF
:100580000160032000F08EF80F2000F005F800F065
:1005900027F8002080BD000070B540F20406C2F2CA
:1005A000000640F20C013278C2F200014FF47A7377
:1005B0000968B3FBF2F20446B1FBF2F1084600F021
:1005C00063FB0F2C4FF0010508D838B94FF0FF300E
:1005D00021460022002500F039F87460284670BDDD
:1005E00082B041F21800C4F202000168022241F018
:1005F00001010160016801F0010101910199416867
:1006000041F080514160406800F0805000900098B7
:100610000420C4F20100016862F31A61016002B0B3
:1006200070470000002848BF7047C1B200F01F00AB
:10063000012202FA00F04EF20012CEF2000242EA6B
:10064000D10121F0030108607047000010B54EF69B
:100650000C5CCEF2000CDCF80030C3F3022E8EF0FE
:100660000704042C28BF0424BEF103034FF0FF3E0F
:100670000EFA04F438BF0023A14399400EFA03F3A5
:100680009A43114300F00F0200F160430901043A5C
:1006900003F564436244002848BF02F10C0319705B
:1006A00010BD00004EF60C51CEF200010A684FF664
:1006B000FF031A4060F30A2242F0806040F0FD70B0
:1006C000086070472DE9F04381B0002800F0858074
:1006D00042F20008C4F202080446D8F800000D46B1
:1006E00000F0070088420CD2D8F8000020F0070084
:1006F0002843C8F80000D8F8000000F00700A8421E
:100700006BD1206841F204098107C4F2020917D5B0
:10071000410705D5D9F8001041F4E061C9F800108F
:10072000010705D5D9F8001041F46051C9F800104F
:10073000D9F80010A26821F0F0011143C9F80010A7
:10074000C00741D1D8F8000000F00700A8420CD93A
:10075000D8F8000020F007002843C8F80000D8F8B7
:10076000000000F00700A84237D12068410707D5F4
:10077000D9F80010E26821F4E0611143C9F80010D3
:10078000000708D5D9F80000216920F4605040EA3C
:10079000C100C9F80000D9F8002002F00C000828B8
:1007A00041F20020C0F27A0050D141F6D213C2F3D8
:1007B0008341C0F60003595CD2033BD440F60010DD
:1007C000C0F23D00484341E0606802280AD0012899
:1007D0002AD159F8041C890308D4012001B0BDE8CE
:1007E000F08300BF59F8041C8901F6D5D9F8001030
:1007F00021F003010843C9F80000FFF7A5FE0646F3
:1008000041F28837D9F80000616800F00C00B0EBC5
:10081000810F97D0FFF798FE801BB842F2D90320D2
:1008200001B0BDE8F08300BF59F8041C8907D4D596
:10083000DCE700BFD9F8002041F6D013C2F34042F4
:10084000C0F600039A5C4843B0FBF2F0D9F8001000
:1008500041F6B812C1F30311C0F60002515C40F238
:100860000C0220FA01F140F20800C2F20000006818
:10087000C2F200021160FFF78FFE002001B0BDE858
:10088000F083000040F20C0041F20401C2F20000CB
:10089000C4F202010068096841F6C812C1F30221DE
:1008A000C0F60002515CC8407047000040F20C00E6
:1008B00041F20401C2F20000C4F2020100680968BA
:1008C00041F6C812C1F3C221C0F60002515CC84013
:1008D000704700002DE9F04182B0002868D004463E
:1008E000007841F20006C007C4F2020625D0706805
:1008F00000F00C0004281BD0706800F00C000828E1
:1009000002D17068C00313D46068002800F06881C9
:10091000B0F5A02F00F07C81B0F5803F00F07C8125
:10092000306820F480303060306820F4802076E138
:100930003068800301D56068D0B32078800718D56F
:10094000706810F00C0F07D0706800F00C000828D9
:100950006ED17068C0036BD43068800702D52069FF
:10096000012825D13068616920F0F80040EAC10013
:100970003060207800071FD42078400732D4E56922
:1009800095B1706800F00C00082840F08F80012DB0
:100990000ED07068216A00F480328A4208D1616A00
:1009A00000F47010884203D1002002B0BDE8F0814D
:1009B000012002B0BDE8F081A069002862D00020CB
:1009C000C4F242200121C0F88014FFF7BDFD0546A6
:1009D000706A800700F18C80FFF7B6FD401B02288B
:1009E000F6D92AE1F06910F0805808D1F06940F09A
:1009F0008050F061F06900F080500090009847F25C
:100A00000007C4F200073868C00529D4386840F4EC
:100A100080703860FFF798FD054600BF3868C00554
:100A20001ED4FFF791FD401B6428F7D905E100BFF4
:100A30002069002840F20000C4F2422000F08280C9
:100A400001210160FFF780FD054600BF3068800787
:100A50003FF588AFFFF778FD401B0228F6D9ECE0A0
:100A6000E068002800F08080052800F097800128C9
:100A700000F09880306A20F001003062306A20F087
:100A8000040092E00020C4F242200021C0F880144B
:100A9000FFF75AFD054600BF706A80077FF56CAF0F
:100AA000FFF752FD401B0228F6D9C6E00027C4F22A
:100AB000422700203866FFF747FD022D05460BD17F
:100AC0003068800140F1BE80FFF73EFD401B0228E8
:100AD0004FF00300F4D968E7306880017FF564AF18
:100AE000FFF732FD401B02284FF00300F4D95CE70A
:100AF00040F20C00C2F20000006844F6D351C1F28B
:100B00006201A0FB0101480A019000BF00BF0198EB
:100B1000411E002801913FF42FAF00BF0198411EF4
:100B2000002801913FF428AF00BF0198411E002822
:100B300001913FF421AF00BF0198411E00280191AF
:100B4000E4D119E700210160FFF7FEFC054600BF74
:100B5000306880077FF50DAFFFF7F6FC401B0228D9
:100B60004FF00300F4D920E7306A20F00100306232
:100B7000306A20F004003062FFF7E6FC054641F2DF
:100B8000883700BF306A800720D5FFF7DDFC401BA7
:100B9000B8424FF00300F5D907E700BF306A40F0D4
:100BA00004003062306A40F001003062FFF7CCFC94
:100BB000054641F2883700BF306A800706D4FFF748
:100BC000C3FC401BB842F7D937E000BFB8F1000FB3
:100BD0007FF4D5AEF06920F08050F061CFE600BF21
:100BE000306820F480303060306820F4802030603D
:100BF000FFF7AAFC054600BF306880037FF59DAE75
:100C0000FFF7A2FC401B64284FF00300F4D9CCE6A8
:100C1000306840F480203060306840F480303060CC
:100C2000FFF792FC054600BF306880033FF585AEB4
:100C3000FFF78AFC401B6428F6D9032002B0BDE808
:100C4000F08100BF206AB0F5803F05D17168A268CD
:100C500021F40031114371607168626A21F47411EA
:100C600011430843706001203866FFF76DFC0446AD
:100C7000306880013FF598AEFFF766FC001B022844
:100C80004FF00300F4D990E6411E0020B0EB116F45
:100C90001CBF012070474EF21002CEF200025160DC
:100CA0004EF62351CEF20001F0230B700721906025
:100CB000116070477047000070470000B0B582B007
:100CC000044600680168C368426901F02F05202DC1
:100CD00003F0200506D12DB1204602B0BDE8B0409A
:100CE00000F044BD5FEA017C1EBF02F0010E03F478
:100CF000907212EB0E0253D1226B012A05D111F032
:100D0000100218BF13F0100236D10A0622D513F0D4
:100D100080021FD094F8411021293FD1A168B1F57C
:100D2000805F03D12169002900F07082216A4A1C8A
:100D3000226209784160E18C01390A04E1842DD1F5
:100D4000C16821F08001C160C16841F04001C1600B
:100D500002B0B0BD490621D513F040011ED0C168D4
:100D600021F04001C1602021204684F8411002B0EA
:100D7000BDE8B04000F08EBC0021019101680191F6
:100D80004168019101994069400613D4A08DE18D1D
:100D9000E28D002A18BF884240F0BA8102B0B0BD8F
:100DA000CA0718BF13F4807240F0B6804A0700F1FA
:100DB000B980BEE0E06B016849688AB2002AEDD0D4
:100DC000A38D9A42EAD2E1858069202800F09C80B8
:100DD000206850E8030F216820F4807041E8030286
:100DE000DAB1206850E8030F216820F4807041E8F0
:100DF000030292B1206850E8030F216820F480704C
:100E000041E803024AB1206850E8030F216820F44A
:100E1000807041E80302002ADAD1206850E8050F0B
:100E2000216820F0010041E80502DAB1206850E8AD
:100E3000050F216820F0010041E8050292B1206809
:100E400050E8050F216820F0010041E805024AB191
:100E5000206850E8050F216820F0010041E80502F4
:100E6000002ADAD1206850E8050F216820F0400000
:100E700041E80502DAB1206850E8050F216820F04A
:100E8000400041E8050292B1206850E8050F216852
:100E900020F0400041E805024AB1206850E8050F03
:100EA000216820F0400041E80502002ADAD1202024
:100EB00084F8420000202063206850E8030F216876
:100EC00020F0100041E80302DAB1206850E8030F77
:100ED000216820F0100041E8030292B1206850E838
:100EE000030F216820F0100041E803024AB1206896
:100EF00050E8030F216820F0100041E80302002AA7
:100F0000DAD1E06BFFF74CF902206063A08DE18D30
:100F1000401A81B2204674E1626C42F001026264C0
:100F20004A0706D5BEF1000F03D0626C42F0020200
:100F300062648A0706D5BEF1000F03D0626C42F0EE
:100F400004026264BCF1000F09D545EA0E02B2FA50
:100F500082F2520903D1626C42F008026264626C50
:100F6000002A3FF41BAF11F0200118BF002D03D061
:100F7000204600F0FBFB20684069616C00F04000F7
:100F800001F00801401800F0B58000BF206850E86B
:100F9000030F216820F4907041E80302BAB320687F
:100FA00050E8030F216820F4907041E8030272B307
:100FB000206850E8030F216820F4907041E8030294
:100FC0002AB3206850E8030F216820F4907041E8AC
:100FD0000302002ADAD11AE0206850E8050F2168E0
:100FE00020F0010041E80502DAB1206850E8050F61
:100FF000216820F0010041E8050292B1206850E824
:10100000050F216820F0010041E805024AB120687F
:1010100050E8050F216820F0010041E80502002A90
:10102000DAD1206B012824D1206850E8030F216811
:1010300020F0100041E80302DAB1206850E8030F05
:10104000216820F0100041E8030292B1206850E8C6
:10105000030F216820F0100041E803024AB1206824
:1010600050E8030F216820F0100041E80302002A35
:10107000DAD1202084F842000020206320684069F3
:1010800040063FD5206850E8050F216820F0400059
:1010900041E80502DAB1206850E8050F216820F028
:1010A000400041E8050292B1206850E8050F216830
:1010B00020F0400041E805024AB1206850E8050FE1
:1010C000216820F0400041E80502002ADAD1E06BF7
:1010D000C0B141F26171C0F600014163FFF784F8CD
:1010E00000283FF45BAEE06B416B02B0BDE8B0405E
:1010F000084700BF2046FFF7DFFD0020606402B014
:10110000B0BD00BF204602B0BDE8B040FFF7D4BD7F
:10111000401A216851E8031F226821F4907142E8C7
:101120000313DBB1216851E8031F226821F4907199
:1011300042E8031393B1216851E8031F226821F4A8
:10114000907142E803134BB1216851E8031F2268F4
:1011500021F4907142E80313002BDAD1216851E8A1
:10116000051F226821F0010142E80513DBB1216867
:1011700051E8051F226821F0010142E8051393B1EF
:10118000216851E8051F226821F0010142E805139A
:101190004BB1216851E8051F226821F0010142E8A6
:1011A0000513002BDAD1202184F84210002121639D
:1011B000216851E8031F226821F0100142E803135F
:1011C000DBB1216851E8031F226821F0100142E8D9
:1011D000031393B1216851E8031F226821F0100125
:1011E00042E803134BB1216851E8031F226821F044
:1011F000100142E80313002BDAD1022281B220460B
:10120000626302B0BDE8B040FFF754BD216A31F817
:10121000022B6FF35F22426021628CE5002804BF3D
:101220000120704710B5044690F8410028B900200D
:1012300084F84000204600F063F8242084F8410040
:101240002068D4E90212C36823F40053C360036921
:1012500023F440531A430261D4E904231143C268C2
:10126000194341F20C639A431143C1604169A26979
:1012700021F44071114343F60002C4F2010290428E
:10128000416103D0FFF7FEFA02E000BFFFF70EFB5B
:101290006268192148439100B0FBF1F048F21F51F8
:1012A000C5F2EB11A0FB01235A094FF69C73C0F65F
:1012B000FF7302FB0300322303EB0010A0FB0101CC
:1012C000F02303EA5113206803EB0212C1F3431128
:1012D00011448160016921F490410161416921F06B
:1012E0002A014161C16841F40051C1600020202100
:1012F000606484F8411084F84210606310BD0000FF
:1013000070B586B040F60004C4F20104006804F52C
:10131000405100268842049602D006B070BD00BF3E
:1013200041F21800C4F20200016802AD41F48041AC
:101330000160016801F4804101910199016841F067
:10134000040101600068294600F004000190019842
:101350004FF4007002900220039003200590204675
:10136000FEF7EEFF4FF48060CDE9020620462946E5
:101370000496FEF7E5FF252000210022FFF766F91D
:101380002520FFF74FF906B070BD000090F84230FD
:10139000202B1CBF0220704700294FF0010318BF0B
:1013A000002A01D11846704700230363816222217D
:1013B0008285C285436480F842100169006819B1D2
:1013C000C16841F48071C1604169002341F00101AD
:1013D0004161C16841F02001C160184670470000BA
:1013E00080B540F21401C2F2000100680968884229
:1013F00007D141F60000C4F2010001210022FFF7ED
:101400009DF840F2140040F21001C2F20000C2F256
:1014100000010122BDE88040FFF7B8BF2DE9F0438D
:1014200081B0044690F84100202840F0B180884601
:1014300000294FF0010000F0D6801646002A00F087
:10144000D2800020606421201D4684F84100FFF70F
:101450007BF8A684E684A1680646B1F5805F03D1D7
:101460002069002800F0988047464FF00008E18C82
:101470002068002900F0968005F101090BE000BF0B
:1014800047B317F8011B4160E18C0139E184E18C1D
:10149000002900F0878001680906F1D4B9F1000F36
:1014A0000AD0EDB1FFF750F8801BA84218D8206889
:1014B00001680906F6D5E3E701680906E0D401688A
:1014C00009065CBF01685FEA0161D9D401680906B9
:1014D000F2D5D5E738F8021B00276FF35F21D2E77A
:1014E000206850E8030F216820F4D07041E803021F
:1014F000BAB3206850E8030F216820F4D07041E8A7
:10150000030272B3206850E8030F216820F4D07002
:1015100041E803022AB3206850E8030F216820F451
:10152000D07041E80302002ADAD11AE0206850E8BE
:10153000050F216820F0010041E80502DAB12068BA
:1015400050E8050F216820F0010041E8050292B142
:10155000206850E8050F216820F0010041E80502ED
:101560004AB1206850E8050F216820F0010041E8E9
:101570000502002ADAD1202084F8410084F84200D4
:10158000002084F84000032001B0BDE8F08300BFD4
:10159000022001B0BDE8F0830027E18C206800291B
:1015A0007FF46AAF0168490619D4FDB1691C0DD1F9
:1015B0000168490613D4016849065CBF01685FEA07
:1015C00041610CD401684906F2D508E0FEF7BCFF82
:1015D000801BA8420AD8206800684006F6D5202063
:1015E00084F84100002001B0BDE8F083206850E895
:1015F000030F216820F4D07041E80302002A3ED096
:10160000206850E8030F216820F4D07041E80302FD
:10161000AAB3206850E8030F216820F4D07041E895
:10162000030262B3206850E8030F216820F4D070F1
:1016300041E80302002AD9D121E000BF206850E828
:10164000050F216820F0010041E80502002A3FF45F
:1016500092AF206850E8050F216820F0010041E8B2
:101660000502002A3FF487AF206850E8050F216883
:1016700020F0010041E80502002A3FF47CAF206819
:1016800050E8050F216820F0010041E80502002A1A
:10169000D4D170E770470000FEE7000070B584B059
:1016A00041F21800C4F20200016841F6000441F062
:1016B000100101600168C4F2010401F01001009101
:1016C00000990168002241F00401016001680125D0
:1016D00001F00401009100990168002641F04001E9
:1016E00001600068012100F0400000900098204651
:1016F000FEF724FF0220039069462046CDE90055FD
:101700000296FEF71DFE04B070BD000080B540F2E9
:10171000140043F60001C2F20000C4F201010023EC
:101720004FF00C0C4FF4E13280E80E00C0E90333B7
:10173000C0E905C3C361FFF771FD002808BF80BD84
:10174000BDE88040FEF726BDFEE70000FEE7000092
:101750007047000070470000FEF7FCBE70470000B5
:10176000406A0021C185C184FFF7A6BA81B090F814
:101770004210222921D183680246B3F5805F09D146
:1017800052F8281F52F8183C002B63D003685B689E
:101790000AE000BF52F8281F13B90369002BF5D0E7
:1017A00003685B6803F07F030B70116801311160FF
:1017B000C18D01390A04C18502D001B0704700BF54
:1017C0000168CA6822F02002CA60CA6822F48072E6
:1017D000CA604A6922F001024A61202180F8421061
:1017E00000214163026B012A3CD10163016851E889
:1017F000031F026821F0100142E80313DBB1016806
:1018000051E8031F026821F0100142E8031393B16D
:10181000016851E8031F026821F0100142E8031338
:101820004BB1016851E8031F026821F0100142E842
:101830000313002BDAD101680A68D20606D500220C
:1018400000920A680092496800910099818D01B068
:10185000FFF730BA026852686FF35F2221F8022B5B
:101860008162A5E701B0FFF7BBBD000040F21400A4
:10187000C2F20000FFF722BAFEE7000010B582B006
:1018800004468DF8070040F21400C2F200000DF18A
:10189000070101220223FFF7C1FD204602B010BD5F
:1018A00090B0FEF765FE00240120CDE90B44CDE9A0
:1018B000094406900A904FF4E0104FF4803102255D
:1018C0000F9006A8CDE90714CDE90D51FFF702F8F6
:1018D00020B1EFF3108072B6FEE700BF0F20CDE914
:1018E00001054FF48060CDE9040401A802210394AE
:1018F000FEF7E8FE20B1EFF3108072B6FEE700BFFE
:10190000FFF7CCFEFFF702FF40F2140040F2100197
:10191000C2F20000C2F200013222FFF737FD41F6A9
:101920000004C4F20104204601210122FEF706FE54
:101930004FF4FA70FEF7F0FC204601210022FEF77A
:10194000FDFD4FF4FA70FEF7E7FC2046012101226D
:10195000FEF7F4FD02A400BF204600F005F8FBE707
:1019600068656C6C6F000000014A024900F013B812
:101970007D1800080000002002E008C8121F08C1FE
:10198000002AFAD170477047002001E001C1121F00
:10199000002AFBD170472DE9F04116460F46044658
:1019A000002503E03946B047641C6D1C20780028F0
:1019B000F8D12846BDE8F0810000000000000000DA
:1019C00001020304060708090000000001020304E5
:1019D000010202030405060708090A0B0C0D0E0F8D
:1019E00010100000081A000800000020100000007D
:1019F00078190008181A0008100000205004000090
:101A0000881900080000000000000000010000002C
:081A1000100000000024F400A6
:0400000508000131BD
:00000001FF
