:020000040800F2
:1000000020070020D50100088F120008FF1100080A
:100010008D12000885040008C515000800000000C6
:100020000000000000000000000000009513000820
:1000300087040008000000009313000897130008CD
:10004000EF010008EF010008EF010008EF010008D0
:10005000EF010008EF010008EF010008EF010008C0
:10006000EF010008EF010008EF010008EF010008B0
:10007000EF010008EF010008EF010008EF010008A0
:10008000EF010008EF010008EF010008EF01000890
:10009000EF010008EF010008EF010008EF01000880
:1000A000EF010008EF010008EF010008EF01000870
:1000B000EF010008EF010008EF010008EF01000860
:1000C000EF010008EF010008EF010008EF01000850
:1000D000EF010008BD150008EF010008EF0100085E
:1000E000EF010008EF010008EF010008EF01000830
:1000F000EF010008EF010008EF010008EF01000820
:10010000EF010008EF010008EF010008EF0100080F
:10011000EF010008EF010008EF010008EF010008FF
:10012000EF010008EF010008EF010008EF010008EF
:1001300000F002F800F03FF80AA090E8000C8244BA
:100140008344AAF10107DA4501D100F034F8AFF297
:10015000090EBAE80F0013F0010F18BFFB1A43F0A5
:1001600001031847C4140000E4140000103A24BF2F
:1001700078C878C1FAD8520724BF30C830C144BF0C
:1001800004680C607047000000230024002500264E
:10019000103A28BF78C1FBD8520728BF30C148BFEA
:1001A0000B607047642900F07580002070471FB510
:1001B0001FBD10B510BD00F033F91146FFF7F7FF72
:1001C00001F00CFA00F051F903B4FFF7F2FF03BCA1
:1001D00001F0F9F90948804709480047FEE7FEE7C2
:1001E000FEE7FEE7FEE7FEE7FEE7FEE7FEE7FEE7E7
:1001F00004480549054A064B70470000F9130008FA
:1002000031010008200100202007002020030020E9
:10021000200300200FB4044910B503AA029800F08F
:10022000D1F810BC5DF814FB800000202DE9F041EE
:100230000E460446002020622046E168884730B31D
:10024000252805D0D4E901219047206A401CF2E717
:10025000E168204600278847050018D0A5F1410035
:10026000192802D820354FF4006732462946204627
:100270002760FFF797FF40B1012804D0F61D26F054
:1002800007060836D8E7361DD6E72846DAE7206A9B
:10029000BDE8F0812DE9F04106460024106875297B
:1002A000314616A510D0AFF30080002802DA404294
:1002B00013A507E031688A0701D512A502E04907B6
:1002C00004D511A5012401E0AFF3008000210A222A
:1002D00006F1240709E0B0FBF2FCB0FBF2F302FBED
:1002E0001C00303078541846491C0028F3D12346AE
:1002F0002A463046BDE8F04100F00BB8000000008F
:100300002D0000002B000000200000007047704707
:1003100070472DE9F0470D4699469246044600F194
:1003200024080168880604D5E06921F010012160E5
:1003300000E00120A84201DD471B00E00027A16981
:100340007A1902EB0900081AA0612078C00602D4CD
:100350002046AFF30080002608E0D4E901211AF816
:1003600006009047206A401C761C20624E45F4DB54
:100370002078C0060AD52046AFF3008006E0D4E915
:10038000012130209047206A401C2062381EA7F1CE
:100390000107F4DC07E0D4E9012118F805009047D3
:1003A000206A401C2062281EA5F10105F3DC2046CE
:1003B000AFF300802078000602D50220BDE8F08768
:1003C0000120FBE7074B70B50D467B4400F011F8A8
:1003D0000446284600F020F810B14FF0FF3070BD01
:1003E000204670BDFB11000001694A1C02610878BB
:1003F000704700B58FB0CDE9013100210591054965
:100400007944CDE9031011466846FFF70FFF0FB09E
:1004100000BD0000E5FFFFFF007B00F0800070479B
:10042000754600F02BF8AE4605006946534620F0AD
:100430000700854618B020B5FFF7DAFEBDE820407A
:100440004FF000064FF000074FF000084FF0000B90
:10045000AC46ACE8C009ACE8C009ACE8C009ACE8FF
:10046000C00921F007018D46704710B50446AFF36F
:1004700000802046BDE81040FFF7A6BE0048704748
:1004800010000020FEE77047EFF3108072B6FEE721
:1004900010B590F82110022912D10168D0E90F237C
:1004A0000C6824F00E040C600C6824F001040C604D
:1004B000012101FA03F3536080F82110002102E0CA
:1004C000042181630121002280F82020084610BD0C
:1004D00010B590F82110022919D10268116821F095
:1004E0000E011160116821F0010111602B4901F129
:1004F0007C039A420FD9314B9A4224D0304B9A4216
:1005000023D0304B9A4222D14FF4807327E004214C
:100510008163012140E0224B9A4226D0214B9A422E
:1005200025D0214B9A4224D0204B9A4224D0204BF4
:100530009A4217D01F4B9A4221D01F4B9A4211D199
:100540004FF080721DE0012309E0102307E001F560
:1005500088644FF48033A24208BF4FF48053C1F83F
:1005600000340FE04FF480320BE0012209E010224A
:1005700007E04FF4807204E04FF4805201E04FF442
:1005800080120A600021012280F8201080F82120CA
:10059000426B0AB190470021084610BD040002409A
:1005A000080002401C0002403000024044000240AB
:1005B000580002406C0002408000024008040240E3
:1005C0001C040240300402402DE9FC4F81465E4885
:1005D00006235F4E4FF0000B4FF001084FF00F0E57
:1005E0004FF0000A8145594808BF052348444FEAA7
:1005F000B022052A38BF4FEAB0230093554B0022A2
:100600000C6834FA02F508BFBDE8FC8F08FA02F561
:100610002C4200F095804F68032F16D9112F26D059
:10062000122F28D04C48874213D04C48874210D014
:100630004B4887420DD04B4887420AD04A488742F0
:1006400007D04A48874204D022E0DFE807F00218CA
:100650001B1F8C6844B1012C14BFC9F81450C9F891
:1006600010504FF0080A13E04FF0040A10E0CC6875
:1006700004F1040A0CE0CC6804F10C0A08E0D1F89B
:100680000CA005E0CC6804F1080A01E04FF0000A74
:100690005C4648469C46082A334628BF203C28BF73
:1006A000043006680EFA04F70AFA04F4BE43344331
:1006B0000460C879C00602D41E46634640E0604C20
:1006C00022F003061E44206840F0010020602068EC
:1006D00000F0010001900BF00C00019F0EFA00F4F5
:1006E000234FBE46F75927EA0404009F07FA00F09B
:1006F000204346F80E001E464FF00F0E4F68F802DA
:10070000986854BF20EA050440EA05046346B460D3
:10071000B802186854BF20EA050440EA05041C60CA
:10072000B803706854BF20EA050440EA0504746009
:10073000F803306854BF20EA050440EA0504346039
:100740000BF1040B01325BE7001C014000F8FEBF17
:10075000000401400C0401400000111000001210C0
:1007600000002110000022100000311000003210A3
:1007700008FCFFFFC26802EA0103914341EA03411A
:1007800001617047002A08BF090401617047000039
:1007900005480068704700BF1A48034900780A6896
:1007A00010440860704700BF1C01002080B59548C8
:1007B000016841F010010160032000F07BF80F2078
:1007C00000F004F800F020F8002080BD70B50D4E58
:1007D00004464FF47A713078B1FBF0F0964909681D
:1007E000B1FBF0F000F0D4FA01250F2C08D838B98D
:1007F0004FF0FF3021460022002500F035F87460EC
:10080000284670BD0000002082B00D480222016819
:1008100041F001010160016801F0010101910199BC
:10082000416841F080514160406800F08050009084
:1008300000980448016862F31A61016002B07047D1
:100840001810024004000140002809D4734600F04B
:100850004AFD9E46034A42EAD00020F003000160B0
:10086000704700BF00E100E0F0B5184B4FF0FF36D5
:100870001C68C4F30224E51E84F0070438BF002579
:1008800006FA05F7BA43042C28BF042406FA04F438
:10089000A14300F00F04A940043C1143044A23443F
:1008A00009010244002848BF03F10C021170F0BD99
:1008B00000E400E005494FF6FF030A681A4060F3C0
:1008C0000A22034810430860704700BF0CED00E0A7
:1008D0000000FA052DE9F84300286CD08846494904
:1008E0000446086800F0070040450AD2086820F076
:1008F000070040EA08000860086800F0070040456B
:1009000059D120685B4B8946810711D5410703D532
:10091000196841F4E0611960010703D5196841F4D1
:1009200060511960A1681A6822F0F0021143196041
:10093000C00737D1D9F8000000F0070040450DD9B5
:10094000D9F8000020F0070040EA0800C9F80000CC
:10095000D9F8000000F0070040452CD1206841077D
:1009600005D5E1681A6822F4E062114319600007B6
:1009700006D52069196821F4605141EAC000186069
:100980001C4600F05DF821681F4AC1F30311515C59
:10099000C840294908601D480068FFF717FF00207C
:1009A000BDE8F8836068022808D0012825D153F8F3
:1009B000041C890306D40120BDE8F88353F8041C05
:1009C0008901F8D519681D4621F003010843186014
:1009D000FFF7DEFE064641F28837606829682B463D
:1009E00001F00C01B1EB800FA4D0FFF7D1FE801B0A
:1009F000B842F2D90320BDE8F88353F8041C8907F4
:100A0000D9D5DFE7002002401016000804000020BE
:100A1000DD481849094A00680968C1F30221515CA0
:100A2000C8407047D8481349044A00680968C1F3B0
:100A3000C221515CC8407047080000202016000801
:100A400010B50C490C480A6802F00C03082B07D1BA
:100A5000C2F3834309A4D203E35C02D40C48584395
:100A600010BD096809A25843C1F34041515CB0FB75
:100A7000F1F010BD0410024000127A0002030405D8
:100A8000060708090A0B0C0D0E0F101001020000DA
:100A900000093D002DE9FC41002800F09C8004463F
:100AA0000078B74EC0071FD0706800F00C00042813
:100AB00014D000F046FC02D17068C0030ED4606808
:100AC000002800F01481B0F5A02F00F02181B0F5CE
:100AD000803F00F0218100F0E5FB20E130688003D9
:100AE00002D56068002876D02078800716D5706817
:100AF00010F00C0F05D000F024FC24D17068C00366
:100B000021D43068800702D52069012863D160694B
:100B1000316821F0F80141EAC00030602078000718
:100B200041D5A06910B397480121C0F88014FFF7A0
:100B30002FFE0546706A800728D4FFF729FE401B68
:100B40000228F7D9F8E021698E48002900F08E804C
:100B500001210160FFF71CFE054630688007D6D4EE
:100B6000FFF716FE401B0228F7D9E5E08548002173
:100B7000C0F88014FFF70CFE0546706A800712D596
:100B8000FFF706FE401B0228F7D9D5E07E484FF458
:100B9000FA510068B0FBF1F0019000BF0198411ECE
:100BA00000280191F9D12078400717D4E7697FB177
:100BB00000F0C7FB3CD1012F0DD0216A706800F412
:100BC00080328A4207D1616A00F47010884202D1F3
:100BD0000020BDE8FC810120BDE8FC81F06910F037
:100BE000805808D1F06940F08050F061F06900F061
:100BF000805000900098654F3868C0050FD4386861
:100C000040F480703860FFF7C3FD05463868C005C2
:100C100005D4FFF7BDFD401B6428F7D98CE0E068E0
:100C2000A0B3052844D0012846D000F054FB46E08C
:100C30005449002088460866FFF7AAFD0546022FA2
:100C40000AD147463068800179D5FFF7A1FD411BE5
:100C500003200229F6D9BCE730688001B8D5FFF738
:100C600097FD411B03200229F6D9B2E7002101605C
:100C7000FFF78EFD0546306880077FF54FAFFFF721
:100C800087FD411B03200229F5D9A2E700F023FBD1
:100C90003062FFF77DFD054641F28837306A8007F4
:100CA0001CD5FFF775FD411B0320B942F6D990E72B
:100CB000306A40F004003062306A40F00100306277
:100CC000FFF766FD054641F28837306A800705D494
:100CD000FFF75EFD401BB842F7D92DE0B8F1000FD9
:100CE0007FF464AFF06920F08050F0615EE700F0BF
:100CF000D9FA3060FFF74CFD0546306880037FF578
:100D0000F3AEFFF745FD411B03206429F5D960E7E9
:100D1000306840F480203060306840F480303060CB
:100D2000FFF736FD0546306880033FF5DDAEFFF77F
:100D30002FFD401B6428F6D90320BDE8FC81206A02
:100D4000B0F5803F05D1A168726822F400321143EA
:100D50007160616A726822F4741211430843706012
:100D600001203866FFF714FD0446306880013FF526
:100D70002FAFFFF70DFD011B03200229F5D928E74E
:100D800000100240000042420800002000700040B5
:100D9000411E0020B0EB116F1CBF01207047044AB8
:100DA000F023516003490B70072190601160704778
:100DB00010E000E023ED00E0704770477CB504468A
:100DC00000680268C168456913073FD001F4907656
:100DD00005F0010576193DD0D60705D0CE0503D51F
:100DE000666C46F001066664560704D51DB1666C54
:100DF00046F002066664960704D51DB1666C46F09F
:100E000004066664002B07D501F020035B1903D0AC
:100E1000636C43F008036364636C002B00F0E080B4
:100E2000920605D5890603D5204600F00DFB206803
:100E30004069616C00F0400001F00801401847D1A2
:100E40002046FFF7BAFF00206064C9E0930601D591
:100E50008B0654D4236B012B03D1D30601D5CB06CB
:100E600052D4130601D50B0611D4520640F1B880B6
:100E7000490640F1B580C16821F04001C1602020E1
:100E800084F841002046BDE87C4000F0B7B994F8F2
:100E90004110212940F0A480A168B1F5805F03D101
:100EA0002169002900F09D80216A4A1C226209788C
:100EB0004160E18C0139E184090440F09180C1680E
:100EC00021F08001C160C16841F04001C1607CBD7A
:100ED000204600F098FA00F021FA4DD500F0F1F923
:100EE000FCD1E06B002847D042494163FFF7F0FA9C
:100EF000002875D0E06B416BBDE87C400847204678
:100F0000BDE87C4000F0A0BA002101910168019188
:100F10004168019101994069400632D4E08DA18D6C
:100F2000E28D002A5CD081425AD0081A216851E82B
:100F3000031F226821F4907142E80313002BF5D1BE
:100F4000216851E8051F226821F0010142E80513DC
:100F5000002BF5D1202184F8421000212163216863
:100F600051E8031F226821F0100142E80313002B0F
:100F7000F5D1022161632DE02046BDE87C40FFF7FA
:100F80001CBFE06B016849688AB24AB3A38D9A42DC
:100F900026D2E1858069202817D000F0C3F920F41B
:100FA000807000F0DEF9F8D100F072F9FCD100F0A9
:100FB00088F9FCD1202084F842000020206300F052
:100FC000B6F9FCD1E06BFFF763FA02206063A08DF5
:100FD000E18D401A81B22046BDE87C40FFF7ECBEAF
:100FE0007CBD216A31F8022B6FF35F2221624260DF
:100FF0005FE700BFFB13000890B110B5044690F8FE
:10100000410008B900F0BFF900F0A0F920680169BB
:1010100021F490410161416921F02A0100F0A5B954
:101020000120704770B586B01C4C006800260496FD
:1010300004F5405188422FD18548016841F4804130
:101040000160016801F4804101910199016841F05A
:1010500004010160006800F0040001900320059085
:10106000022003904FF400700290019802AD2046D8
:101070002946FFF7A9FA4FF480602946CDE90366B7
:1010800002902046FFF7A0FA252000210022FFF75A
:10109000EBFB2520FFF7D8FB06B070BD0008014030
:1010A00010B590F84230202B06D139B132B100246E
:1010B000046300F069FA02E0022400E00124204603
:1010C00010BD00002DE9F04101463A48096800F5DD
:1010D0002052914233D1384D6978AC7831B92C2CFB
:1010E00004D1012100F0E6F82C2224E0012908BFF8
:1010F000122C1CD002292AD12878224605EB400167
:1011000001308C802870C1B22CA0FFF783F82878BA
:10111000062808BF5B2C23D0072810D3002002210B
:10112000288008290BD025F811000131F9E70221A8
:1011300000F0C0F812228A801021FFF71BFB1E4826
:101140000122811C5048BDE8F041FFF7A9BF0020F3
:10115000022128800829F2D025F811000131F9E791
:101160002889DFF87880A0F130061AA0B1B2C04714
:1011700028782F1D1A4907EB400030F8060C00EBC9
:10118000800001EB400417A0A1B2C047287807EB0C
:10119000400030F8040CA0F1300714A0B9B2C047E9
:1011A000642006FB0040384481B212A0C0470020F2
:1011B0006870C4E70010014070000020527842754A
:1011C00066666572315B25645D2069732025640D58
:1011D0000A00000043783A25640D0A001502000851
:1011E00020FEFFFF43793A25640D0A00437A3A2531
:1011F000640D0A0025640D0A000000007047FEE738
:101200007FB51348134C012210250126016841F0D7
:1012100010010160016801F010010091009901685E
:1012200041F0040101601021006800F0040000900A
:1012300000982046FFF7A6FA02206946CDE900563D
:101240000390002002902046FFF7BEF97FBD00BF4B
:10125000181002400010014010B5EA48DE4C002191
:101260000C224FF4E133C0E90043C0E90211C0E9A8
:101270000412C0E90611FFF7BFFE18B1BDE8104027
:10128000FFF702B910BD00BFD4000020FEE7FEE763
:10129000206850E8050F216820F0010041E80502B0
:1012A000002A7047306820F480303060306820F4C5
:1012B00080207047697029784A1C05EB41012A702B
:1012C0007047206850E8050F216820F0400041E891
:1012D0000502002A7047306A20F001003062306A4F
:1012E00020F00400704700F01F010122C0B202FA92
:1012F00001F17047016851E8051F026821F0010102
:1013000042E80513002B7047016851E8031F02688B
:1013100021F0100142E80313002B70472068406958
:1013200040067047206850E8030F21687047206826
:1013300050E8030F216820F0100041E80302002A62
:101340007047706800F00C0008287047242084F86B
:1013500041002068C16821F40051C160204600F0BE
:10136000D3B841E80302002A70474161C16841F4E3
:101370000051C16000202021606484F8411084F88D
:101380004210606310BD002084F840002046FFF743
:1013900049BE70477047FFF7FFB9B0B590B04FF442
:1013A000E010002402250F904FF48030CDE90B446B
:1013B000CDE909440D950E90CDE907040120069072
:1013C0000A9006A8FFF766FB18B1EFF3108072B61B
:1013D000FEE74FF4806005940221CDE903400F2021
:1013E000CDE9010501A8FFF775FA18B1EFF31080F8
:1013F00072B6FEE710B0B0BD7047406A0021C185EB
:10140000C184FFF7DABC016851E8031F026821F4C8
:10141000907142E80313002BF5D14DF808EDFFF76A
:1014200069FF5DF808EBF8D1016B012906D14DF891
:1014300008EDFFF769FF5DF808EBF8D1202180F88F
:10144000421000210163704781B090F842102229B8
:1014500020D183680246B3F5805F08D152F8281F77
:1014600052F8183C002B43D003685B6809E052F83F
:10147000281F13B90369002BF6D003685B6803F0DB
:101480007F030B70116801311160C18D0139C18575
:10149000090401D001B070470168CA6822F0200237
:1014A000CA60CA6822F48072CA604A6922F00102E6
:1014B0004A61202180F8421000214163026B012A19
:1014C0001ED101634DF808EDFFF71EFF5DF808EB34
:1014D000F8D101680A68D20606D5002200920A688F
:1014E0000092496800910099818D01B0FFF764BCBA
:1014F000026852686FF35F2221F8022B8162C4E711
:1015000001B0FFF7DFBD0000B0B50446006804F18C
:1015100008030ECB056925F4405519432A4341F2CF
:101520000C650261C2686369AA4319431143C16033
:101530004169A26921F44071114341612649884201
:1015400002D0FFF765FA01E0FFF76CFA1921484372
:10155000D4E900120B4C9200B0FBF2F06422B0FB15
:10156000F2F303FB0400322404EB0010B0FBF2F0B2
:1015700000F0F00200F00F0002EB0312104488604C
:10158000B0BD00BF9CFFFF0F0023C2854364816292
:101590002221828580F842100168006918B1C8686C
:1015A00040F48070C860486940F001004861C86834
:1015B00040F02000C8600020704700001148FFF78D
:1015C000FDBB00BFFEE7704703490A685206FCD521
:1015D000C2B24A60704700BF00380140FFF7E6F82A
:1015E000FFF7DBFEFFF70CFEFFF736FE0548064966
:1015F0000122FFF755FD054810210122FFF7C2F82F
:10160000FEE700BFD400002072000020001001405F
:1016100000000000000000000102030406070809A2
:10162000000000000102030448160008000000202A
:10163000100000006C01000858160008100000207F
:1016400010070000880100080100000010000000E1
:081650000024F400000000007A
:0400000508000131BD
:00000001FF
