:020000040800F2
:10000000C805002045010008011E0008211A00084B
:10001000FD1D00088D010008151E000800000000ED
:10002000000000000000000000000000091E0008A1
:100030009101000800000000051E00080D1E0008C8
:100040005F0100085F0100085F0100085F01000810
:100050005F0100085F0100085F0100085F01000800
:100060005F0100085F0100085F0100085F010008F0
:100070005F0100085F0100085F0100085F010008E0
:100080005F0100085F0100085F0100085F010008D0
:100090005F0100085F0100085F0100085F010008C0
:1000A0005F0100085F0100085F0100085F010008B0
:1000B0005F0100085F0100085F0100085F010008A0
:1000C0005F0100085F0100085F0100085F01000890
:1000D0005F0100085F0100085F0100085F01000880
:1000E0005F0100085F0100085F0100085F01000870
:1000F0005F0100085F0100085F0100085F01000860
:100100005F0100085F0100085F0100085F0100084F
:100110005F0100085F0100085F0100085F0100083F
:100120005F0100085F0100085F0100085F0100082F
:10013000DFF80CD000F018F800480047411E000816
:10014000C80500200648804706480047FEE7FEE74E
:10015000FEE7FEE7FEE7FEE7FEE7FEE7FEE7FEE777
:10016000111E000831010008064C074D06E0E0684A
:1001700040F0010394E8070098471034AC42F6D3EE
:10018000FFF7DAFF3C2000085C200008FEE70000D3
:1001900070470000EFF3108072B600BFFEE700006A
:1001A000B0B5044600F014F9054640F20400C2F26E
:1001B00000000078611C18BF044400BF00F008F97B
:1001C000401BA042FAD3B0BD2DE9F04F82B0D1F868
:1001D00000C0BCF1000F00F0F180A0F1804241F6B8
:1001E0000045A2F58432C4F2010540F2004E4FEA08
:1001F000B2240627A842C4F2010E08BF0527052C29
:100200004FF000044FF001084FF00F034FF0000AC9
:100210004FF0000B38BF4FEAB22700970AE000BF4B
:10022000D1F800C00AF1010A3CFA0AF204F1040410
:1002300000F0C48008FA0AF91CEA090FF0D04E68F1
:100240004FF6FF72C1F21002964211DC122E55D801
:10025000DFE806F0340A4448545454545454545477
:1002600054545454544C5000D1F80CB046E000BFE4
:100270004FF6FF72C1F2210296420FDC0022C1F25A
:10028000110296421AD00022C1F21202964215D0F3
:100290000022C1F22102964210D02FE00022C1F2CA
:1002A000220296420AD00022C1F23102964205D0C3
:1002B0000022C1F23202964220D100BF8A684AB1C0
:1002C000012A14BFC0F81490C0F810904FF0080B2A
:1002D00014E000BF4FF0040B10E000BFCA6802F149
:1002E000080B0BE04FF0000B08E000BFCA6802F1FA
:1002F000040B03E0CA6802F10C0B00BF224606465D
:10030000BAF1080F24BF203A0436376803FA02F521
:10031000AF430BFA02F23A433260CA79D2067FF554
:100320007FAF41F21807C4F202073A684FF608435C
:1003300042F001023A603A68CFF6FF7302F0010220
:100340000192019A2AF0030272440F25D75804F053
:100350000C06B540AF43009D05FA06F63743D7506B
:100360004E6840F20C45F202DEF8082054BF22EA43
:10037000090242EA0902CEF80820C4F201052A68FF
:10038000B70254BF22EA090242EA09022A60DEF8F3
:100390000420B70354BF22EA090242EA0902CEF858
:1003A00004200F23DEF80020F70354BF22EA0902DD
:1003B00042EA0902CEF8002032E700BF02B0BDE8F1
:1003C000F08F0000002A08BF090401617047000097
:1003D00040F2C010C2F200000068704740F2040012
:1003E00040F2C011C2F20000C2F2000100780A68B7
:1003F000104408607047000080B542F20000C4F26B
:100400000200016841F010010160032000F07AF859
:100410000F2000F005F800F027F8002080BD000054
:1004200070B540F20406C2F2000640F20C013278C8
:10043000C2F200014FF47A730968B3FBF2F204468A
:10044000B1FBF2F1084600F04FFB0F2C4FF0010515
:1004500008D838B94FF0FF3021460022002500F0BF
:1004600025F87460284670BD82B041F21800C4F2CD
:1004700002000168022241F001010160016801F0FF
:10048000010101910199416841F08051416040684A
:1004900000F08050009000980420C4F20100016830
:1004A00062F31A61016002B07047000010B54EF6A9
:1004B0000C5CCEF2000CDCF80030C3F3022E8EF0A0
:1004C0000704042C28BF0424BEF103034FF0FF3EB1
:1004D0000EFA04F438BF0023A14399400EFA03F347
:1004E0009A43114300F00F0200F160430901043AFE
:1004F00003F564436244002848BF02F10C031970FD
:1005000010BD00004EF60C51CEF200010A684FF605
:10051000FF031A4060F30A2242F0806040F0FD7051
:10052000086070472DE9F04381B0002800F0858015
:1005300042F20008C4F202080446D8F800000D4652
:1005400000F0070088420CD2D8F8000020F0070025
:100550002843C8F80000D8F8000000F00700A842BF
:100560006BD1206841F204098107C4F2020917D552
:10057000410705D5D9F8001041F4E061C9F8001031
:10058000010705D5D9F8001041F46051C9F80010F1
:10059000D9F80010A26821F0F0011143C9F8001049
:1005A000C00741D1D8F8000000F00700A8420CD9DC
:1005B000D8F8000020F007002843C8F80000D8F859
:1005C000000000F00700A84237D12068410707D596
:1005D000D9F80010E26821F4E0611143C9F8001075
:1005E000000708D5D9F80000216920F4605040EADE
:1005F000C100C9F80000D9F8002002F00C0008285A
:1006000041F20020C0F27A0050D142F22A03C2F334
:100610008341C0F60003595CD2033BD440F600107E
:10062000C0F23D00484341E0606802280AD001283A
:100630002AD159F8041C890308D4012001B0BDE86F
:10064000F08300BF59F8041C8901F6D5D9F80010D1
:1006500021F003010843C9F80000FFF7B9FE064680
:1006600041F28837D9F80000616800F00C00B0EB67
:10067000810F97D0FFF7ACFE801BB842F2D9032060
:1006800001B0BDE8F08300BF59F8041C8907D4D538
:10069000DCE700BFD9F8002042F22803C2F3404251
:1006A000C0F600039A5C4843B0FBF2F0D9F80010A2
:1006B00042F21002C1F30311C0F60002515C40F295
:1006C0000C0220FA01F140F20800C2F200000068BA
:1006D000C2F200021160FFF7A3FE002001B0BDE8E6
:1006E000F083000040F20C0041F20401C2F200006D
:1006F000C4F202010068096842F22002C1F302213B
:10070000C0F60002515CC8407047000040F20C0087
:1007100041F20401C2F20000C4F20201006809685B
:1007200042F22002C1F3C221C0F60002515CC8406F
:10073000704700002DE9F04182B0002868D00446DF
:10074000007841F20006C007C4F2020625D07068A6
:1007500000F00C0004281BD0706800F00C00082882
:1007600002D17068C00313D46068002800F068816B
:10077000B0F5A02F00F07C81B0F5803F00F07C81C7
:10078000306820F480303060306820F4802076E1DA
:100790003068800301D56068D0B32078800718D511
:1007A000706810F00C0F07D0706800F00C0008287B
:1007B0006ED17068C0036BD43068800702D52069A1
:1007C000012825D13068616920F0F80040EAC100B5
:1007D0003060207800071FD42078400732D4E569C4
:1007E00095B1706800F00C00082840F08F80012D52
:1007F0000ED07068216A00F480328A4208D1616AA2
:1008000000F47010884203D1002002B0BDE8F081EE
:10081000012002B0BDE8F081A069002862D000206C
:10082000C4F242200121C0F88014FFF7D1FD054633
:10083000706A800700F18C80FFF7CAFD401B022818
:10084000F6D92AE1F06910F0805808D1F06940F03B
:100850008050F061F06900F080500090009847F2FD
:100860000007C4F200073868C00529D4386840F48E
:1008700080703860FFF7ACFD054600BF3868C005E2
:100880001ED4FFF7A5FD401B6428F7D905E100BF82
:100890002069002840F20000C4F2422000F082806B
:1008A00001210160FFF794FD054600BF3068800715
:1008B0003FF588AFFFF78CFD401B0228F6D9ECE02E
:1008C000E068002800F08080052800F0978001286B
:1008D00000F09880306A20F001003062306A20F029
:1008E000040092E00020C4F242200021C0F88014ED
:1008F000FFF76EFD054600BF706A80077FF56CAF9D
:10090000FFF766FD401B0228F6D9C6E00027C4F2B7
:10091000422700203866FFF75BFD022D05460BD10C
:100920003068800140F1BE80FFF752FD401B022875
:100930004FF00300F4D968E7306880017FF564AFB9
:10094000FFF746FD401B02284FF00300F4D95CE797
:1009500040F20C00C2F20000006844F6D351C1F22C
:100960006201A0FB0101480A019000BF00BF01988D
:10097000411E002801913FF42FAF00BF0198411E96
:10098000002801913FF428AF00BF0198411E0028C4
:1009900001913FF421AF00BF0198411E0028019151
:1009A000E4D119E700210160FFF712FD054600BF01
:1009B000306880077FF50DAFFFF70AFD401B022866
:1009C0004FF00300F4D920E7306A20F001003062D4
:1009D000306A20F004003062FFF7FAFC054641F26D
:1009E000883700BF306A800720D5FFF7F1FC401B35
:1009F000B8424FF00300F5D907E700BF306A40F076
:100A000004003062306A40F001003062FFF7E0FC21
:100A1000054641F2883700BF306A800706D4FFF7E9
:100A2000D7FC401BB842F7D937E000BFB8F1000F40
:100A30007FF4D5AEF06920F08050F061CFE600BFC2
:100A4000306820F480303060306820F480203060DE
:100A5000FFF7BEFC054600BF306880037FF59DAE02
:100A6000FFF7B6FC401B64284FF00300F4D9CCE636
:100A7000306840F480203060306840F4803030606E
:100A8000FFF7A6FC054600BF306880033FF585AE42
:100A9000FFF79EFC401B6428F6D9032002B0BDE896
:100AA000F08100BF206AB0F5803F05D17168A2686F
:100AB00021F40031114371607168626A21F474118C
:100AC00011430843706001203866FFF781FC04463B
:100AD000306880013FF598AEFFF77AFC001B0228D2
:100AE0004FF00300F4D990E6411E0020B0EB116FE7
:100AF0001CBF012070474EF21002CEF2000251607E
:100B00004EF62351CEF20001F0230B7007219060C6
:100B100011607047B0B590F83C20012A04BF022054
:100B2000B0BD01F108053CCDD1E900CE23F47C53E2
:100B300022F470521A432EF4F0431A432CF4E0438B
:100B40001A4324F4C0431A432A43C96922F4804259
:100B5000036811435964002180F83C100846B0BD79
:100B600010B590F83C20012A4FF002023FD080F8E7
:100B70003D200268D2F804E0D2F808C00C682EF0DC
:100B80007003234340F6FF34C4F20004A2425360D2
:100B900010DCB2F1804F1FD040F20043C4F20003DA
:100BA0009A4219D040F60003C4F200039A4213D0CF
:100BB00017E000BF40F60043C4F200039A420BD096
:100BC00043F20043C4F201039A4205D042F60043C7
:100BD000C4F201039A4204D149682CF080031943FE
:100BE00091600121002280F83D1080F83C201046E1
:100BF00010BD0000002804BF0120704710B5044656
:100C000090F83D0028B9002084F83C00204600F010
:100C100085F8022084F83D00206840F6FF33026822
:100C2000C4F2000343F2004C9842C4F2010C21DCF0
:100C3000B0F1804F2CD040F20041C4F20001884254
:100C400026D040F60001C4F20001884220D098422C
:100C500024DCB0F1804F2FD040F20041C4F20001FB
:100C6000884229D040F60001C4F20001884223D016
:100C700026E000BF40F60041C4F20001884207D0E0
:100C8000604505D042F60041C4F201018842DED140
:100C9000A16822F070020A439842DADD40F6004172
:100CA000C4F20001884207D0604505D042F60041F9
:100CB000C4F20101884203D1216922F440720A433F
:100CC000A36922F08001D4F804E0E268194360458A
:100CD0000160C262C0F828E005D042F60041C4F2CB
:100CE0000101884201D16169016301214161002054
:100CF00084F8461084F83E1084F83F1084F84010C1
:100D000084F8411084F8421084F8431084F84410A9
:100D100084F8451084F83D1010BD000082B00068D2
:100D200040F60001C4F20001884215D042F60041AD
:100D3000C4F2010188421CD141F21800C4F2020041
:100D4000016841F400610160006800F400600190F6
:100D5000019802B0704700BF41F21800C4F20200CF
:100D6000416841F004014160406800F004000090D7
:100D7000009802B07047000080B590F83C20012A2E
:100D80004FF0020200F0C28080F83D20D0F800C091
:100D90004FF67772DCF8083023EA0202CCF808201C
:100DA0000B684F2B28DC1F2B44DD202B45D0302B2C
:100DB00043D0402B40F0AC80D1F804E0C968DCF8A7
:100DC0002030DCF8202022F00102CCF82020DCF8D2
:100DD000182022F0F00242EA011123F00A0242EA4E
:100DE0000E02CCF81810CCF82020DCF8081041F0E6
:100DF000470121F0300180E06F2B27DDB3F5005F64
:100E000048D0B3F5805F7AD0702B40F08180D1E973
:100E100001E3C968DCF8082043EA0E0322F47F42AC
:100E200043EA01211143CCF80810DCF8081041F026
:100E3000770162E00BB1102B6AD1DCF8081021F0C9
:100E40007001194341F0070157E000BF502B35D026
:100E5000602B5DD1D1F804E0C968DCF82030DCF803
:100E6000202022F01002CCF82020DCF8182022F4F8
:100E7000704242EA013123F0A00242EA0E12CCF89D
:100E80001810CCF82020DCF8081041F0670121F0A0
:100E9000100132E0D1E901E3C968DCF8082043EA37
:100EA0000E0322F47F4243EA01211143CCF80810DB
:100EB000DCF8081041F480411FE000BFD1F804E0E5
:100EC000C968DCF82030DCF8202022F00102CCF8E0
:100ED0002020DCF8182022F0F00242EA011123F071
:100EE0000A0242EA0E02CCF81810CCF82020DCF8F6
:100EF000081041F0570121F02001CCF80810002221
:100F0000012180F83D10002180F83C10104680BD82
:100F10000122F5E7002804BF012070472DE9F04FBA
:100F200081B0044690F83D008B4628B9002084F833
:100F30003C00204600F0B0F8022084F83D00206814
:100F400044F20702816840F6FF33914381600268F2
:100F5000C4F2000343F2004C9842C4F2010C21DCBD
:100F6000B0F1804F2CD040F20041C4F20001884221
:100F700026D040F60001C4F20001884220D09842F9
:100F800024DCB0F1804F2FD040F20041C4F20001C8
:100F9000884229D040F60001C4F20001884223D0E3
:100FA00026E000BF40F60041C4F20001884207D0AD
:100FB000604505D042F60041C4F201018842DED10D
:100FC000A16822F070020A439842DADD40F600413F
:100FD000C4F20001884207D0604505D042F60041C6
:100FE000C4F20101884203D1216922F440720A430C
:100FF000A36922F080016268E568194360450160D9
:10100000C562826205D042F60041C4F20101884205
:1010100001D1616901630121416182688369D0F86E
:1010200020C0DBE9005EDBE9027845EA020ADBF872
:1010300018504FF6FF7923EA090347EA05254FF6D2
:10104000FC47BD43DBE9077643EA0803DBF81020E1
:101050002B4343EA072343EA02122CF02203DBF876
:10106000147043EA0E0342EA063243EA0713C0F85B
:1010700008A08261036284F8461084F83E1084F868
:101080003F1084F8421084F8431084F83D1000208B
:1010900001B0BDE8F08F000070B586B0006840F286
:1010A0000042C4F20002002190420591CDE90311F3
:1010B000029149D0B0F1804F67D141F21800C4F2DB
:1010C0000200416840F6000441F0010141604168BE
:1010D000C4F2010401F0010101910199016802AD1E
:1010E00041F0040101600168002601F00401019152
:1010F0000199016841F0080101600068294600F08B
:101100000800019001984FF4004002902046CDE97C
:101110000366FFF759F80820CDE9020604F5806060
:1011200029460496FFF750F80420C4F20100016834
:101130004FF6FF42CFF6FF02114041F0E06141F46B
:101140008071016006B070BD41F21800C4F2020067
:10115000426842F002024260426802F002020192DA
:10116000019A026842F004020260006800F0040084
:1011700001900198C020CDE9020140F600000491E1
:10118000C4F2010002A9FFF71FF806B070BD00000D
:101190002DE9F04190F83C30012B04BF0220BDE85E
:1011A000F0814FEAB202032A00F21C81DFE802F06C
:1011B000024690DA036843F200461D6A1A6A25F077
:1011C000020522F001021A621A465C6852F818EF12
:1011D0008F68D1F800C0C4F20106B34245EA0705A2
:1011E00005D042F60047C4F20107BB4205D1CF68E3
:1011F00025F00C0527F004073D43B34205D042F625
:101200000046C4F20106B34205D1D1E9056724F4D2
:10121000407434433C432EF0730747EA0C075C608C
:101220009F614F6809695F631D629F6947F0080706
:101230009F619F6927F004079F61C9E0036843F23B
:1012400000461D6A1A6A25F0200522F010021A6273
:101250001A46D3F804C052F8188F8F68D1F800E00E
:10126000C4F20106B34245EA071505D042F600472D
:10127000C4F20107BB4207D1CF686FF0400425F0EC
:10128000C00504EA07142543B34205D042F60044E2
:10129000C4F20104A34206D1D1E905462CF440670B
:1012A000264347EA860C28F4E64444EA0E27C3F8AE
:1012B00004C09F614F6809699F631D629F6947F47D
:1012C00000679F619F6927F480679F617FE000BF8F
:1012D000036843F200461D6A1A6A25F4007522F479
:1012E00080721A621A46D3F804C052F81CEF8F6855
:1012F000D1F80080C4F20106B34245EA072505D0C3
:1013000042F60047C4F20107BB4208D1CF6840F261
:10131000FF443F0225F4406527EA04042543B34215
:1013200005D042F60044C4F20104A34206D1D1E93B
:1013300005462CF44057264347EA061C2EF0730757
:1013400047EA0807C3F804C0DF614F680969DF6333
:101350001D62DF6947F00807DF61DF6927F00407D6
:10136000DF6135E0036843F20047D3F820C01A6A12
:10137000C4F2010722F480521A621A465C6852F8DD
:101380001C5FD1F800E08E68BB4205D042F60047F2
:10139000C4F20107BB4204D14F6924F4804444EAFB
:1013A00087142CF4005747EA063725F4E64646EA48
:1013B0000E265C60DE614E6809691E641F62DF698B
:1013C00047F40067DF61DF6927F48067DF610902A6
:1013D0001368194311600021002280F83C20084660
:1013E000BDE8F0810121002280F83C200846BDE8DC
:1013F000F0810000002804BF0120704710B50446AA
:1014000090F83D0028B9002084F83C00204600F008
:1014100085F8022084F83D00206840F6FF3302681A
:10142000C4F2000343F2004C9842C4F2010C21DCE8
:10143000B0F1804F2CD040F20041C4F2000188424C
:1014400026D040F60001C4F20001884220D0984224
:1014500024DCB0F1804F2FD040F20041C4F20001F3
:10146000884229D040F60001C4F20001884223D00E
:1014700026E000BF40F60041C4F20001884207D0D8
:10148000604505D042F60041C4F201018842DED138
:10149000A16822F070020A439842DADD40F600416A
:1014A000C4F20001884207D0604505D042F60041F1
:1014B000C4F20101884203D1216922F440720A4337
:1014C000A36922F08001D4F804E0E2681943604582
:1014D0000160C262C0F828E005D042F60041C4F2C3
:1014E0000101884201D1616901630121416100204C
:1014F00084F8461084F83E1084F83F1084F84010B9
:1015000084F8411084F8421084F8431084F84410A1
:1015100084F8451084F83D1010BD000070470000AD
:1015200041B1082910D0042914BF00F1410200F193
:101530003F020BE090F83E20012A1CBF01207047BB
:10154000022280F83E2013E000F140021278012AC6
:101550001CBF012070470222082907D0042914BFAC
:1015600080F8412080F83F2002E000BF80F8402052
:10157000006801F01F010122036A02FA01F123EA67
:1015800001020262026A114340F6FF32C4F2000215
:10159000904201620EDCB0F1804F25D040F2004154
:1015A000C4F2000188421FD040F60001C4F20001DD
:1015B00018E000BF40F60041C4F20001884213D099
:1015C00043F20042C4F2010242F600419042C4F2EA
:1015D000010101D088420ED1436C904243F4004394
:1015E000436401D0884206D1816801F007010629D1
:1015F00004BF00207047016841F001010160002034
:1016000070470000002804BF0120704710B5044651
:1016100090F8410028B9002084F84000204600F0EE
:1016200063F8242084F841002068D4E90212C368DA
:1016300023F40053C360036923F440531A43026147
:10164000D4E904231143C268194341F20C639A435D
:101650001143C1604169A26921F44071114343F60D
:101660000002C4F201029042416103D0FFF73AF850
:1016700002E000BFFFF74AF8626819214843910071
:10168000B0FBF1F048F21F51C5F2EB11A0FB0123B2
:101690005A094FF69C73C0F6FF7302FB0300322316
:1016A00003EB0010A0FB0101F02303EA51132068B3
:1016B00003EB0212C1F3431111448160016921F46B
:1016C00090410161416921F02A014161C16841F401
:1016D0000051C16000202021606484F8411084F82A
:1016E0004210606310BD000070B586B0006844F21F
:1016F0000041C4F2000188424FF00001CDE904111D
:10170000CDE9021120D043F60001C4F20101884264
:1017100048D141F21800C4F2020001684FF480661B
:1017200041F480410160016801F480410191019917
:10173000016841F004010160006800F004000190BC
:1017400001984FF4007017E041F21800C4F2020053
:101750004168082641F400314160416801F40031DC
:1017600001910199016841F004010160006800F0F5
:1017700004000190019804200290022040F6000429
:1017800003900320C4F2010402AD059020462946CF
:10179000FEF71AFD0020CDE90300204629460296F7
:1017A000FEF712FD06B070BD2DE9F04381B004468E
:1017B00090F84100202840F0B180884600294FF081
:1017C000010000F0D6801646002A00F0D2800020EA
:1017D000606421201D4684F84100FEF7F9FDA684CF
:1017E000E684A1680646B1F5805F03D12069002830
:1017F00000F0988047464FF00008E18C20680029EF
:1018000000F0968005F101090BE000BF47B317F81F
:10181000011B4160E18C0139E184E18C002900F079
:10182000878001680906F1D4B9F1000F0AD0EDB143
:10183000FEF7CEFD801BA84218D820680168090673
:10184000F6D5E3E701680906E0D4016809065CBF44
:1018500001685FEA0161D9D401680906F2D5D5E7CC
:1018600038F8021B00276FF35F21D2E7206850E8A9
:10187000030F216820F4D07041E80302BAB3206856
:1018800050E8030F216820F4D07041E8030272B3DE
:10189000206850E8030F216820F4D07041E803026B
:1018A0002AB3206850E8030F216820F4D07041E883
:1018B0000302002ADAD11AE0206850E8050F2168F7
:1018C00020F0010041E80502DAB1206850E8050F78
:1018D000216820F0010041E8050292B1206850E83B
:1018E000050F216820F0010041E805024AB1206897
:1018F00050E8050F216820F0010041E80502002AA8
:10190000DAD1202084F8410084F84200002084F8D5
:101910004000032001B0BDE8F08300BF022001B009
:10192000BDE8F0830027E18C206800297FF46AAFCE
:101930000168490619D4FDB1691C0DD10168490639
:1019400013D4016849065CBF01685FEA41610CD4A9
:1019500001684906F2D508E0FEF73AFD801BA8426F
:101960000AD8206800684006F6D5202084F8410097
:10197000002001B0BDE8F083206850E8030F216823
:1019800020F4D07041E80302002A3ED0206850E8DD
:10199000030F216820F4D07041E80302AAB3206845
:1019A00050E8030F216820F4D07041E8030262B3CD
:1019B000206850E8030F216820F4D07041E803024A
:1019C000002AD9D121E000BF206850E8050F216826
:1019D00020F0010041E80502002A3FF492AF2068A0
:1019E00050E8050F216820F0010041E80502002AB7
:1019F0003FF487AF206850E8050F216820F0010010
:101A000041E80502002A3FF47CAF206850E8050F4A
:101A1000216820F0010041E80502002AD4D170E7D6
:101A2000FEE7000070B584B041F21800C4F2020075
:101A3000016841F6004441F0100101600168C4F200
:101A4000010401F01001009100990168002241F0A9
:101A50008001016001681F2501F08001009100995B
:101A60000168002641F004010160016801F00401F1
:101A700000910099016841F040010160016801F0A6
:101A8000400100910099016841F00801016000687F
:101A90001F2100F00800009000982046FEF792FCFD
:101AA0000120CDE9010602200390694620460095F9
:101AB000FEF78AFB04B070BD70B59CB042F60045DD
:101AC00040F21000C4F201050021C2F200004722DA
:101AD00044F61F6380261691CDE914111191CDE9CA
:101AE0000F11CDE90D11CDE90B11CDE90911CDE9AA
:101AF0000711CDE90511CDE90311CDE90111C0E9C7
:101B00000052C0E90213C0E904118661FFF772F8C0
:101B1000002818BFFEF73EFB4FF48050139040F2B0
:101B20001000C2F2000013A9FFF726F9002818BF21
:101B3000FEF730FB40F21000C2F20000FFF75AFC43
:101B4000002818BFFEF726FB40F210000024C2F266
:101B5000000010A9CDE91044FFF702F8002818BFD3
:101B6000FEF718FB6020099040F2DC50CDE90A0432
:101B700040F21000C2F2000009A90022CDE90C4495
:101B8000CDE90E44FFF704FB002818BFFEF702FB67
:101B900000200A9040F21000C2F2000009A90422BD
:101BA000FFF7F6FA002818BFFEF7F4FA40F210002B
:101BB000C2F2000009A90822FFF7EAFA002818BFBC
:101BC000FEF7E8FA40F210044FF40050C2F20004AD
:101BD0000026069001A920460596CDE90366CDE9C9
:101BE00001660896FEF796FF002818BFFEF7D2FAA6
:101BF00020681A96A84201D01CB070BD41F21800AE
:101C0000C4F20200016841F040010160006818A9B7
:101C100000F04000179017984FF4285018900220B9
:101C200019901B90A5F5A050FEF7CEFA0420C4F23F
:101C30000100016841F0E06141F0C00101601CB0A9
:101C400070BD000080B58CB040F258000021C2F297
:101C500000004FF080424FF6FF73C0E900210122DF
:101C6000CDE90011C0E9021301618161CDE90321D1
:101C7000CDE90521CDE90711CDE909210B9103A992
:101C8000FFF748F9002818BFFEF784FA40F2580021
:101C9000C2F200006946FEF763FF002818BFFEF796
:101CA00079FA0CB080BD000080B58CB040F2A00085
:101CB00040F200420021C2F20000C4F200024FF6DE
:101CC000FF73C0E900210122CDE90011C0E9021330
:101CD00001618161CDE90321CDE90521CDE907113C
:101CE000CDE909210B9103A9FFF714F9002818BFCA
:101CF000FEF750FA40F2A000C2F200006946FEF77B
:101D00002FFF002818BFFEF745FA0CB080BD000079
:101D100080B586B040F2E80040F600020021C2F231
:101D20000000C4F200024FF6FF730591CDE90311E4
:101D3000CDE90011C0E90021C0E902130161816110
:101D4000FEF758FF002818BFFEF724FA4FF4805022
:101D5000029040F2E800C2F2000002A9FFF70CF87E
:101D6000002818BFFEF716FA40F2E800C2F20000A1
:101D70006946FEF7F5FE002818BFFEF70BFA06B01D
:101D800080BD000080B540F2301043F60001C2F281
:101D90000000C4F2010100234FF00C0C4FF4E132BB
:101DA00080E80E00C0E90333C0E905C3C361FFF753
:101DB00029FC002808BF80BDBDE88040FEF7EAB9D5
:101DC00080B540F2781044F20041C2F20000C4F243
:101DD000000100234FF00C0C4FF4E13280E80E00BC
:101DE000C0E90333C0E905C3C361FFF70BFC00285A
:101DF00008BF80BDBDE88040FEF7CCB9FEE700001B
:101E0000FEE700007047000070470000FEF7E6BAEA
:101E100070470000FEE7000010B582B004468DF860
:101E2000070040F23010C2F200000DF1070101225C
:101E30004FF6FF73FFF7B8FC204602B010BD00005C
:101E400090B0FEF7D9FA00240120CDE90B44CDE98A
:101E5000094406900A904FF4E0104FF480310225B7
:101E60000F9006A8CDE90714CDE90D51FEF762FCED
:101E700020B1EFF3108072B6FEE700BF0F20CDE96E
:101E800001054FF48060CDE9040401A80221039408
:101E9000FEF748FB20B1EFF3108072B6FEE700BFFB
:101EA000FFF7C0FDFFF708FEFFF7CCFEFFF7FCFED3
:101EB000FFF72EFFFFF766FFFFF782FF40F21004E7
:101EC000C2F2000420460021FFF72AFB204604212D
:101ED000FFF726FB20460821FFF722FB41F60045CD
:101EE000C4F20105284610210122FEF76BFA2846AC
:101EF00001210022FEF766FA284602210122FEF7A0
:101F000061FA206842F21076866328461021012289
:101F1000FEF758FA284604210022FEF753FA284615
:101F200008210122FEF74EFA20684FF4FA71C663C9
:101F300041634FF47A70FEF733F9284610210122ED
:101F4000FEF740FA284601210122FEF73BFA284617
:101F500002210022FEF736FA206810218663284607
:101F60000122FEF72FFA284604210122FEF72AFA61
:101F7000284608210022FEF725FA206840F6C41101
:101F8000C66341634FF47A70FEF70AF928461021C0
:101F90000022FEF717FA20681021866328460022E7
:101FA000FEF710FA20684FF4AF6103A4C6634163E3
:101FB000204600F005F8FBE768656C6C6F000000D8
:101FC000014A024900F013B8191E00080000002061
:101FD00002E008C8121F08C1002AFAD170477047F2
:101FE000002001E001C1121F002AFBD170472DE93A
:101FF000F04116460F460446002503E03946B04737
:10200000641C6D1C20780028F8D12846BDE8F081BA
:102010000000000000000000010203040607080998
:102020000000000001020304010202030405060788
:1020300008090A0B0C0D0E0F10100000602000089C
:102040000000002010000000D01F000870200008D1
:1020500010000020B8050000E01F0008000000008C
:102060000000000001000000100000000024F40047
:0400000508000131BD
:00000001FF
